:020000040800F2
:1000000000200020392400084D1F00084F1F000861
:1000100000000000000000000000000000000000E0
:10002000000000000000000000000000511F000858
:100030000000000000000000531F0008551F0008CA
:100040008924000800000000892400088924000891
:1000500089240008892400088924000889240008CC
:10006000000000005D1F00088924000889240008A2
:100070008924000889240008892400080000000061
:100080008924000889240008000000008924000851
:10009000892400088924000889240008892400088C
:1000A0008924000889240008892400086D1F00089D
:1000B000892400080000000000000000000000008B
:1000C00010B5064C2378002B07D1054B002B02D02E
:1000D000044800E000BF0123237010BD040000208D
:1000E00000000000F8240008044B10B5002B03D0DA
:1000F0000349044800E000BF10BDC04600000000F6
:1001000008000020F824000802B47146490849009C
:10011000095649008E4402BC7047C04602B471467D
:1001200049084900095C49008E4402BC7047C0463A
:10013000002243088B4274D303098B425FD3030A26
:100140008B4244D3030B8B4228D3030C8B420DD339
:10015000FF22090212BA030C8B4202D312120902C7
:1001600065D0030B8B4219D300E0090AC30B8B4205
:1001700001D3CB03C01A5241830B8B4201D38B03B3
:10018000C01A5241430B8B4201D34B03C01A524158
:10019000030B8B4201D30B03C01A5241C30A8B429B
:1001A00001D3CB02C01A5241830A8B4201D38B0286
:1001B000C01A5241430A8B4201D34B02C01A52412A
:1001C000030A8B4201D30B02C01A5241CDD2C3099C
:1001D0008B4201D3CB01C01A524183098B4201D318
:1001E0008B01C01A524143098B4201D34B01C01A03
:1001F000524103098B4201D30B01C01A5241C3087B
:100200008B4201D3CB00C01A524183088B4201D3E9
:100210008B00C01A524143088B4201D34B00C01AD5
:100220005241411A00D20146524110467047FFE741
:1002300001B5002000F006F802BDC0460029F7D045
:1002400076E770477047C04610B5040000F038FEEE
:10025000FA218900FFF76CFF00F07CF901200022F1
:100260002100404200F03CF9002010BD1023064A56
:1002700010B5116800200B431360FFF7E5FF01F094
:100280004DFE002010BDC04600200240024A136807
:10029000013313607047C04620000020014B1868EE
:1002A0007047C04620000020F8B504000120002C53
:1002B00072D0636C002B06D122004032A364200070
:1002C000137001F079FC636CDB0600D579E0042241
:1002D00023689868104000D073E0626C4249114076
:1002E00002220A43032162649A680A40012A00D06C
:1002F0006DE01968114202D1DA68120467D5DA6834
:100300003A49256A0A40DA60A2696F039103E269FB
:10031000D2031143626B013A561EB2411603E268E2
:10032000114322690F43022A00D10420226B616A23
:1003300052003A4332430243012904D1002D2CD10B
:10034000802149020A43C220A16AFF30814202D0C3
:10035000E06A01430A438020D96840051143D9600F
:10036000A16B814202D0481E062807D8072558698C
:100370002940A8435861586901435961DB681C4909
:100380000B409A4211D100200322A064636C934376
:100390001A00012313436364F8BD2020656C2843D1
:1003A0006064A06C0143A164CDE71222636C01205C
:1003B00093431A00102313436364A36C0343A364A1
:1003C000EAE71023626C012013436364E4E7182119
:1003D000DA688A43A1680A43DA60196962688900A9
:1003E0008908114319618AE7FDFEFFFF1902FEFF2C
:1003F000E7FF3F83F7B500230400019340342378DF
:1004000005000220012B2BD001232A68AE6B9068D7
:100410002370400752D42C484F680D6887423BD068
:10042000AB4018008023976A5B05384390629E4278
:100430000FD0013E062E0CD98B6807215069084069
:10044000834206D050690B40884350615069034392
:1004500053612B00103B012B03D900200023237094
:10046000FEBD1A4B80221968102D13D0D2030A4307
:100470001A60102DF1D1164B16491868FFF758FE77
:100480000A2358430190019B002BE6D0019B013BBE
:100490000193F8E71204EAE7AB40916A99432B0015
:1004A000103B9162012BD8D8084B1A68102D03D04D
:1004B00009490A401A60D0E70849FAE72022696C26
:1004C00018000A436A64C9E70110000008270140C8
:1004D0000000002040420F00FFFFBFFFFFFF7FFF33
:1004E00070B58901002814DA0F23C0B20340083B1D
:1004F000114A9B089B009B18032210409040FC323D
:100500001500114085408140DC69AC432143D9612D
:1005100070BD032583082840A840FC352E00074AFB
:100520009B009B18C02286402940814092009C5825
:10053000B44321439950EBE700ED00E000E100E017
:100540001F2318401E3B8340014A13607047C0467A
:1005500000E100E0094A431E012093420DD8C0216A
:10056000074A08485360036A09061B021B0A0B432B
:10057000036200200723906013607047FFFFFF00B5
:1005800010E000E000ED00E070B504000120002C58
:1005900028D002232068A51CEB770268124BA168C3
:1005A0001A4063680B43E1680B4321690B4361699F
:1005B0000B43A1690B43E1690B43134303600B4BEE
:1005C0001421C018FFF7B4FD094B80002064E363D9
:1005D00000200123A062E06220636063A063E4184E
:1005E000EB77E07770BDC0460FC0FFFFF8FFFDBF9F
:1005F0000000024070B5841CE37F022B04D004236A
:100600008363033B180070BD0E210368056C1A68F4
:100610008A431A6001221968914319601100A940A8
:10062000C36B5960E27700248318426BDC771300B8
:10063000A242E7D090472300E4E7F8B504273E0044
:10064000016CC26B8E40156803681C682E420DD089
:100650003C420BD01968890602D41968B943196065
:10066000C36A5660002B19D0984717E002273E0056
:100670008E402E4213D03C4211D01968890606D410
:100680000A241968A14319600121C319D97756605A
:100690000022431CDA77836A9342E5D1F8BD08262D
:1006A00037008F403D42F9D03442F7D00E251C6808
:1006B000AC431C6001231C008C405460821C83638B
:1006C000D3770022C318DA77036BE5E7F0B50B6840
:1006D00087B0029300230191029ADA4001D107B05A
:1006E000F0BD01229A4003920399029A0A400092B7
:1006F00000D18CE0019A1021526816008E43022E20
:100700000ED107251D40AD000139A940DC08A40029
:100710000419276A8F4301990969A9400F43276289
:1007200003245F00BC40E4430568013E2540AC461D
:1007300003251540BD4061460D430560012E0FD8CD
:1007400001998668CD682640BD403543856046687E
:10075000039915098E4301210D409D4035434560A5
:10076000C56801992C408D688021BD4049052C4306
:10077000C4600A424BD00121264C0326A5691E40C5
:100780000D43A561A4699D080C400594059C0F24A8
:100790002149AD00B6006D18B4409021AF68C9057D
:1007A000A743002488420CD01C490134884208D059
:1007B0001B490134884204D01A490334884200D1CD
:1007C000023CB44000993C430E00AC60164CCD4353
:1007D00027683E43D10301D43E002E40266067685F
:1007E000009E3E43910301D43E002E406660A76800
:1007F000009E3E43D10201D43E002E40A660E66832
:10080000009F3743920201D42E403700E760013346
:1008100062E7C046001002400000014000040048AA
:1008200000080048000C00480004014070B50400B6
:100830000120002C3FD0250041352B78DBB2002B66
:1008400005D1220040321370200001F075FA2423F4
:1008500001212B702368E0681A68A6688A431A6031
:1008600061681A4A0A401A619968194A11409960E8
:10087000012821D180210902314399605868154926
:1008800001435960D96800200A40DA606169226931
:100890000A43A16909020A43DA60216AE2690A434C
:1008A0001A60012219680A431A60202360642B70C1
:1008B00020634234207070BD842109023143996065
:1008C0000228DBD1802109015960D7E7FFFFFFF043
:1008D000FF7FFFFF00800002F0B504004134227862
:1008E0000300D2B20220202A18D11D0040352E78F4
:1008F000012E13D01B68223020701E6823388643D7
:100900001E601E68064F3E401E601E68314319601F
:10091000196808431860002022702870F0BDC04696
:10092000FFEFFFFFF0B5050041352A780300D2B292
:100930000220202A17D11C0040342678012E12D024
:100940001B68223028701E68233886431E601E688C
:10095000054F09023E403143196019680843186089
:1009600000202A702070F0BDFFF0FFFFF0B5036893
:1009700085B00500DB072FD42B689B0700D581E0ED
:100980002B681B0700D5BCE02B685B0700D5DFE0B8
:100990002B68DB061AD56A69B54C0423012A00D0FE
:1009A0004BE1616B02260B436363636B1A43626323
:1009B000FFF774FC0700636B334200D136E1F82186
:1009C000626BAB698A43DB0013436363296A0029C6
:1009D00000D059E1002013E00C21A54C62680A40C8
:1009E000042A06D063680B40082B0BD16368DB0335
:1009F00008D523689B03BFD56B68002BBCD10120B1
:100A000005B0F0BD6B68012B13D1802322685B0217
:100A100013432360FFF742FC80260700B6022368D9
:100A20003342A9D1FFF73AFCC01B6428F7D9032051
:100A3000E6E7002B16D123688E4A802613402360F8
:100A400023688D4AB60213402360FFF727FC070096
:100A50002368334200D18FE7FFF720FCC01B6428D6
:100A6000F6D9E4E7052B05D180232268DB02134386
:100A70002360CAE723687F4A1340236023687E4AC5
:100A80001340C6E70C227A4C6368134206D06368B1
:100A90001340082B10D16368DB030DD423689B0738
:100AA00002D5EB68012BAAD1F82122682B698A4371
:100AB000DB001343236063E7EA680123002A0FD0B9
:100AC0002268022613432360FFF7E8FB0700236830
:100AD0003342E9D1FFF7E2FBC01B0228F7D9A6E7B2
:100AE000226802269A432260FFF7D8FB070023689A
:100AF000334200D144E7FFF7D1FBC01B0228F6D9EF
:100B000095E7EA6901235A4C002A10D0626A02264E
:100B100013436362FFF7C2FB0700636A334200D0EE
:100B200032E7FFF7BBFBC01B0228F6D97FE7626AFA
:100B300002269A436262FFF7B1FB0700636A334201
:100B400000D121E7FFF7AAFBC01B0228F6D96EE708
:100B500080220021464C5205E3690091134208D1DE
:100B6000E3691343E361E36913400393039B0123A8
:100B700000938027414E7F0033683B4206D0AB682C
:100B8000012B13D1226A1343236230E033683B43C5
:100B90003360FFF783FB019033683B42EFD1FFF7EF
:100BA0007DFB019BC01A6428F6D940E70122002B87
:100BB00014D1236A022793432362236A03329343A7
:100BC0002362FFF76BFB0600236A3B4225D0FFF749
:100BD00065FB2B4B801B9842F6D928E7052B0BD1E0
:100BE000216A013B0B432362236A1A432262FFF707
:100BF00055FB022706000DE0236A9343042223627B
:100C0000236A9343C0E7FFF749FB1D4B801B9842C3
:100C100000D90CE7236A3B42F5D0009B012B00D0A2
:100C2000B6E6E369174A1340E361B1E6FFF736FB26
:100C3000C01B022800D8BEE6F9E6053203D1626B7C
:100C40009A436263BBE6626B02261343012263632D
:100C5000636B93436363FFF721FB0700636B3342CE
:100C600000D1B3E6FFF71AFBC01B0228F6D9DEE677
:100C700000100240FFFFFEFFFFFFFBFF007000407F
:100C800088130000FFFFFFEF0C22264C0120636851
:100C90001340082B00D1B3E62368234A1340236096
:100CA00002292FD1FFF7FAFA80260700B60423683D
:100CB000334221D10F22E36A9343EA6A1343E3628A
:100CC000696AAB6A62680B43184980250A4013437E
:100CD0006360802322685B0413432360FFF7DEFA1E
:100CE0000600AD0423682B4200D073E6FFF7D6FA66
:100CF000801B0228F6D99AE6FFF7D0FAC01B02281B
:100D0000D5D994E6FFF7CAFA80250600AD0423681A
:100D10002B4200D15EE6FFF7C1FA801B0228F6D90C
:100D200085E6C04600100240FFFFFFFEFFFFC2FF46
:100D300070B5144C88B010222100684601F0CAFB3F
:100D4000210004AD10221031280001F0C3FB0C2259
:100D50000D4E73681A40082A11D10F206A46990C6B
:100D60000140545CF26A0240A95CDB0305D50748E8
:100D7000FFF7DEF9604308B070BD0548FAE70348A5
:100D8000F9E7C046102500080010024000127A0062
:100D900000093D00F7B50122434C060023680F000F
:100DA00013408B421CD33268930723D4D30729D432
:100DB000012322681A40974267D333683B4C5B0794
:100DC0006AD4FFF7B5FF6368394A1B061B0FD35C73
:100DD000D840384B18600020FFF736FA002008E0B2
:100DE000236893430B432360236813409942DAD06E
:100DF0000120FEBDF0202D494B688343B0680343BA
:100E00004B60D3E7294D72682B68012A1AD19B03E6
:100E1000EED503216B688B4313436B60FFF73EFAFB
:100E200073680190012B15D10C226B681340042BC1
:100E3000BED0FFF733FA019BC01A1F4B9842F3D97B
:100E40000320D6E7022A02D19B01E2D4D0E79B0718
:100E5000DFD4CDE7022B12D00C226B681342A7D04F
:100E6000FFF71CFA019BC01A134B9842F4D9E7E72D
:100E7000FFF714FA019BC01A0F4B9842E0D80C22DE
:100E80006B681340082BF3D192E722689A432260E3
:100E900022681A42ACD190E76368084A1340F268AE
:100EA000134363608DE7C0460020024000100240FB
:100EB000342500080000002088130000FFF8FFFF21
:100EC000014B18687047C04600000020044B054ADB
:100ED0005B685B055B0FD35C034A1068D8407047C2
:100EE000001002404425000800000020F0B503680F
:100EF00085B00500DB0328D580220021374C520540
:100F0000E3690091134208D1E3691343E361E369A4
:100F100013400393039B012300938027304E7F00EF
:100F200033683B4226D0C022236A920013402D4EE4
:100F300032D1236A1E406B681E43009B2662012B40
:100F400003D1E369284A1340E3612A68D30706D531
:100F5000032022490B6B8343A86803430B630020E3
:100F6000930617D510211D4A136B8B43E9680B4379
:100F700013630FE033683B433360FFF78FF9019051
:100F800033683B42CFD1FFF789F9019BC01A64282F
:100F9000F6D9032005B0F0BD69680A409342C8D075
:100FA0008023226A206A11005B0203432362236AC2
:100FB0000E483140034023622162D307B9D5FFF7C1
:100FC0006DF907000222236A1342B2D1FFF766F9D6
:100FD000074BC01B9842F5D9DBE7C0460010024022
:100FE00000700040FFFCFFFFFFFFFFEFFFFFFEFF71
:100FF00088130000F8B504000120002C4BD000231A
:101000002500A3625D352B78DBB2002B05D12200D1
:101010005C321370200000F03BFF02234022216865
:101020002B700B68002093430B60E023E268DB0029
:101030009A4231D9F0263601B24233D10600206BF4
:10104000002803D19A422FD902232363A76863683B
:10105000A0693B4327693B4367693B43E7693B43DF
:10106000276A3B43A76A3B438027BF0007403B43B7
:101070000B60636A000C1A43636B1A430423184025
:10108000104306434E60CB69084A00201340CB61F1
:10109000012320662B70F8BD802676019A42CED0BF
:1010A000A062CCE70600FBE70123CEE7FFF7FFFFD6
:1010B0000122036A70B593430362036A4468856939
:1010C000723295430A681543022293438A68134398
:1010D000144A904208D0144EB04205D0134EB0428C
:1010E00002D0134EB04216D10826B343CE68334324
:1010F0000426B343904208D00B4A904205D00B4AD5
:10110000904202D00A4A904205D10A4A8E69224092
:101110004C69344314434A68446085614263036206
:1011200070BDC046002C0140004001400044014019
:1011300000480140FFFCFFFF70B57325036A174AA2
:1011400013400362036A4268C469AC430D682C43D0
:10115000134D2B408D682D022B43124DA8420ED10A
:10116000114D1D40CB681B022B43104D2B40104DE1
:101170004E6915408A69324312012A4308E00D4D39
:10118000A842F4D00C4DA842F1D00C4DA842EED0AC
:1011900042604A68C461C263036270BDFFFEFFFF24
:1011A000FFFDFFFF002C0140FFF7FFFFFFFBFFFFEC
:1011B000FFCFFFFF004001400044014000480140D4
:1011C000036A144A30B513400362026A124C436842
:1011D000C56925400C6824022543104C22408C68C8
:1011E000240322430E4CA04208D00E4CA04205D04E
:1011F0000D4CA04202D00D4CA04204D10C4C234017
:101200004C69A401234343604B68C56103640262D7
:1012100030BDC046FFEFFFFFFF8CFFFFFFDFFFFF8A
:10122000002C0140004001400044014000480140C2
:10123000FFBFFFFF1C4A10B50368904202D01B4C51
:10124000A04208D17024A3434C68234390420ED09F
:10125000164CA0420BD0164CA04208D0154CA04210
:1012600005D0154CA04202D0144CA04203D1144C1E
:101270002340CC6823438024A3434C692343036069
:101280008B68C3620B688362904208D0094B984216
:1012900005D0094B984202D0084B984201D10B6906
:1012A00003630123436110BD002C01400004004092
:1012B000002000400040014000440140004801403F
:1012C000FFFCFFFF70B504000120002C14D02500A6
:1012D0003D352B78DBB2002B05D122003C32137058
:1012E000200000F0F5FE022320682B70211DFFF77F
:1012F000A1FF012300202B7070BD70B504000120F8
:10130000002C14D025003D352B78DBB2002B05D105
:1013100022003C321370200000F0B6FE0223206849
:101320002B70211DFFF786FF012300202B7070BD5D
:101330001022036A70B593430362026A164D436834
:1013400084692C400D682D022C432025AA438D680A
:101350002D012A43114DA8420FD18025AA43150023
:10136000CA6812012A434025AA430D4D4E691D400B
:101370008B6933439B002B4308E00A4DA842F4D00D
:10138000094DA842F1D0094DA842EED043604B6808
:1013900084618363026270BDFF8CFFFF002C0140FB
:1013A000FFF3FFFF004001400044014000480140BE
:1013B00070B5040002263C34257803003000012D6E
:1013C00017D01D0001383D3520702E700C2A0CD826
:1013D0001000FEF7A3FE070A0A0A0F0A0A0A130AF8
:1013E0000A0A17001868FFF763FE012300202B701C
:1013F000207070BD1868FFF79BFFF6E71868FFF7CD
:101400009BFEF2E71868FFF7DBFEEEE7F8B5060093
:1014100002233C360D00317804001800012925D044
:10142000270001213D3731703B700C2A1AD810007B
:10143000FEF774FE071818181D1818182F1818181A
:10144000410029002068FFF733FE082223689969CC
:101450000A4304219A619A698A439A619A692969BF
:101460000A439A61012300203B703070F8BD2900C7
:101470002068FFF75DFF80222368120199690A4303
:101480009A619A6915490A409A612A699969120212
:10149000E6E729002068FFF74FFE08222368D96994
:1014A0000A430421DA61DA698A43DA61DA6929696F
:1014B0000A43DA61D6E729002068FFF781FE80221F
:1014C00023681201D9690A43DA61DA6903490A40DB
:1014D000DA612A69D9691202EAE7C046FFFBFFFF19
:1014E00010B501248C408A40036AA3430362036A57
:1014F0001A43026210BD000010B50400012200680A
:10150000FFF7EEFF23680B4A934208D00A4A934242
:1015100005D00A4A934202D0094A934204D180225C
:10152000596C12020A435A640122196800200A43C6
:101530001A6010BD002C01400040014000440140F1
:101540000048014030B504003C34227803000220FA
:10155000012A17D01D001B683D3528705A686E306F
:1015600082435A605A6808684968024380205A607A
:101570009A6882439A609A6800200A439A6001231D
:101580002B70207030BD000030B504003C3423784F
:1015900002000220012B24D015003D352870114B8C
:1015A000C86812680340886803430F4803404868CE
:1015B00003430E480340086803430D48034008698D
:1015C00003430C4803404869896903430A480340C0
:1015D0000A480B4303400B435364002001232B7044
:1015E000207030BDFFFCFFFFFFFBFFFFFFF7FFFF99
:1015F000FFEFFFFFFFDFFFFFFFBFFFFFFF7FFFFFEB
:10160000036806491A686A300A401A609A682331EA
:10161000FF318A439A60202303707047DFFEFFFF8B
:10162000704770477047406A0023020010B55A3275
:101630001380083A1380FFF7F5FF10BD70B5040062
:101640000568C269836800692968034360693F4E81
:1016500003433F48134301400B432B606B683D49F4
:10166000206A0B40E1680B436B60A369A9680343E0
:10167000394801400B43AB6080231B02B54210D1B7
:1016800003203649096B01403548405C9A4213D02B
:10169000082858D8FEF742FD375742574B5757573F
:1016A000500030498D424CD19A422CD1FFF70EFCAC
:1016B000636840005B080BE0082821D8FEF724FD92
:1016C000F6200520182020201B0063685808264BB0
:1016D000C0186168FEF72CFD83B200200F221900AC
:1016E00091430A001B0721685B0F1343CB6070BD59
:1016F000FFF71EFBDCE76368580880235B02E7E71F
:1017000001200023EAE7FFF7E1FB61684B081818A6
:10171000FEF70EFD80B2E8600020E8E76168134B39
:101720004808C018FEF704FD80B2F060F4E7FFF748
:10173000FFFA61684B08F4E7802361681B024808E0
:10174000EFE79A42DCD00120D1E7C04600380140E3
:10175000F369FFFFFFCFFFFFFFF4FFFF0010024020
:1017600030250008004400400024F40000127A00F4
:10177000436A30B5DA0706D50168284C4A6822402A
:10178000846A22434A609A0706D50168244C4A6855
:101790002240C46A22434A605A0706D50168214C98
:1017A0004A682240046B22434A601A0706D5016842
:1017B0001D4C4A682240446B22434A60DA0606D533
:1017C00001681A4C8A682240846B22438A609A0618
:1017D00006D50168164C8A682240C46B22438A6091
:1017E0005A0610D50168134D4A68046C2A402243FA
:1017F0004A6080225203944205D14A680E4C22402E
:10180000446C22434A601B0606D502680B495368A4
:101810000B40816C0B43536030BDC046FFFFFDFFA2
:10182000FFFFFEFFFFFFFBFFFF7FFFFFFFEFFFFF5D
:10183000FFDFFFFFFFFFEFFFFFFF9FFFFFFFF7FF50
:1018400070B5041E01D1012070BD050069352B78EB
:10185000DBB2002B04D102006832137000F0B2FD3D
:101860002423012122682B70136820008B4313600E
:10187000FFF7E4FE0128E6D0636A002B02D02000C7
:10188000FFF776FF23680B495A6800200A400821B9
:101890005A609A688A439A60012219680A431A605A
:1018A00022002023E0666A3268342B7013702070A7
:1018B000CAE7C046FFF7FFFF030030B569331B7866
:1018C00002000220212B0FD114005234238811680A
:1018D0009BB2002B09D10A687E3082430A60402205
:1018E000086802430A60002030BD802095684001EE
:1018F000D36C85420DD1106900280AD118880233B3
:10190000C005C00D0885D3642388013B9BB22380AA
:10191000E9E7581CD0641B780B85F5E74021026885
:1019200010B513688B4313600300202269331A70CB
:10193000FFF776FE002010BD020070B56A32117804
:10194000036822292DD1010080245C310D88998CF7
:10195000640129408568436DA5421ED10469002CAD
:101960001BD1198002334365010000245A310B88D2
:10197000013B9BB20B80A3420DD103680C4D19684B
:101980002940196099682335FF35A94399602023C0
:101990001370FFF746FE200070BD5C1C4465197093
:1019A000E2E70822996902240A439A61F3E7C046F4
:1019B000DFFEFFFF0F2270B504000068C3690168F5
:1019C0001A4008D120252B4205D0294203D02000FF
:1019D000FFF7B2FF70BD8568002A60D00122154074
:1019E00003D190267600314259D0134205D0CE055E
:1019F00003D50262E66E3243E2660222134206D04B
:101A0000002D04D00262E66E92183243E266042290
:101A1000134206D0002D04D00262E66E023A324331
:101A2000E2661A0708D58A0601D4002D04D00822E0
:101A30000262E06E0243E266E26E002ACAD0202211
:101A4000134204D0114202D02000FFF775FFE36E6D
:101A500020001B0704D423689D6840231D401AD032
:101A6000FFF7CEFD402123689A680A420FD09A689A
:101A7000606E8A439A60002809D0134B4363FEF7D7
:101A8000B9FD0028A6D0606E436B9847A2E72000FE
:101A9000FFF7C8FD9EE7FFF7C5FDE5669AE78022E0
:101AA000134205D0114203D02000FFF705FF91E754
:101AB0004022134200D18DE7114200D18AE7200075
:101AC000FFF72CFF86E7C0462716000830B585B023
:101AD0000C22002101A800F006FD0422344C354BF5
:101AE0006261FC32A2628022002523600123D200C1
:101AF00020006560A560E5602361A561E561236262
:101B00006562E26225636363FEF7CEFBA84201D003
:101B100000F094F980235B010293802301A95B0507
:101B2000200001950393FEF765FC002801D000F02A
:101B300085F9012301A920000193FEF75BFC002831
:101B400001D000F07BF9022301A920000193FEF7E8
:101B500051FC002801D000F071F9032301A92000F5
:101B60000193FEF747FC002801D000F067F9042339
:101B700001A920000193FEF73DFC002801D000F0F0
:101B80005DF9052301A920000193FEF733FC00282D
:101B900001D000F053F9062301A920000193FEF7BC
:101BA00029FC002801D000F049F905B030BDC0463D
:101BB000680000200024014030B5050089B01422DF
:101BC000002103A800F08FFC1D4B2A689A4235D1F2
:101BD00080201C4B800099690143996180219A699A
:101BE000890202400192019A5A6990200A435A617F
:101BF0005B69C0050B400293029B7F2303A90393FB
:101C00007C3B0493FEF762FD0F4C104B8022236057
:101C10000023E26092186360A3602261A3618022C6
:101C20008023D2009B0120006261E361FEF7ACFCDF
:101C3000002801D000F002F9EC63656209B030BD04
:101C4000002401400010024024000020080002404F
:101C500007B50120084A51690143516153690022C7
:101C60000340019311000830019BFEF739FC092065
:101C7000FEF766FC07BDC0460010024000B589B003
:101C80001422002103A800F02EFC8020114B8002BA
:101C90005969014359615A69024080200092009AB3
:101CA0005969C0020143596180215A690903024000
:101CB0000192019A5A6908480A435A615B690B40CC
:101CC0000293029BE02303A9DB010393FEF7FEFCD2
:101CD00009B000BD001002400004004810B5134BCD
:101CE000134C01222360134B200063600023E26049
:101CF000A36023616361A361E3612362FEF796FD44
:101D0000002801D000F09AF800212000FEF7E4FD41
:101D1000002801D000F092F800212000FEF702FE1A
:101D2000002801D000F08AF810BDC04600540040E1
:101D3000B40000200E09002010B5040088B0142261
:101D4000002103A800F0CFFB134B22689A4220D158
:101D50008021124CC902626911480A4362616369B9
:101D600003220B400193019BC0239B00039312238A
:101D700003A90493113B059306920793FEF7A6FC73
:101D80008021E26989030A43E261E3690B4002931F
:101D9000029B08B010BDC046005400400010024035
:101DA0000004004830B5102495B03022002108A866
:101DB00000F099FB22000021684600F094FB22000D
:101DC000002104A800F08FFB122308938023012533
:101DD0000C940E949B030E3C08A8109412930B9540
:101DE0000D95FEF7C3FD07230194002429006846E2
:101DF000009302940394FEF7CDFF212304A80493DB
:101E000006940794FFF772F815B030BD10B5FEF7D1
:101E10002DFAFFF7C7FFFFF731FFFFF719FFFFF7B5
:101E200055FEFFF75BFF00F00BF800F0BDF900F086
:101E300037FA00F0ABFA00F0D1F8FEE77047000087
:101E40001148124B10B503608223C0225B0043602F
:101E500000239200C260013AFF3A8261F13AFF3AF0
:101E6000836003614361C261036243628362093A32
:101E700003630833C2624363FFF7BCF8002801D054
:101E8000FFF7DCFF10BDC04600010020003001401C
:101E900030B5040089B01422002103A800F023FB10
:101EA0001B4B22689A4231D180201A4B400199691C
:101EB0000225014399619A6903240240802000921F
:101EC000009A596980020143596180215A69C90207
:101ED00002400192019A5A6990200A435A615B6953
:101EE000C0050B400293029B802303A90393049532
:101EF0000694FEF7EBFB18230393002303A906487F
:101F00000495059306940793FEF7E0FB09B030BDF6
:101F100000300140001002400004004801200A4B3C
:101F200082B099690143996180219A69490502400B
:101F30000092009ADA690A43DA61DB690B40019387
:101F4000019B02B07047C046001002407047FEE798
:101F50007047704710B5FEF799F910BD10B50248EB
:101F6000FEF76BFB10BDC0462400002010B50248F0
:101F7000FFF720FD10BDC046240200200121114BB7
:101F800011481A680A431A605A6802405A601A686F
:101F90000E4802401A601A680D4802401A605A68DA
:101FA0000C4802400F205A60DA6A8243DA621A6BE8
:101FB000094802401A635A6B8A435A6300229A60A6
:101FC0007047C046001002400CB8FF08FFFFF6FE45
:101FD000FFFFFBFFFFFFC0FFECFEFFFF30B591B03E
:101FE00008220021684600F07EFA1C22002102A887
:101FF00000F079FA1C22002109A800F074FA204DA3
:10200000204B00242B60FA2328009B006C60AC60FE
:10201000EB602C616C61AC61FFF754F9A04201D018
:10202000FFF70CFF6946280000940194FFF78AFA35
:10203000002801D0FFF702FF002402A92200280097
:102040000294039404940594069407940894FFF76B
:10205000AFF9A04201D0FFF7F1FE802309A99B014F
:10206000280009940A940B940C940D940E930F94E9
:10207000FFF78AFA002801D0FFF7E0FE11B030BD6B
:10208000640100200040014003680E4A82B0934280
:102090000BD180200C4A0001916901439161936941
:1020A00003400093009B02B07047084A9342FAD164
:1020B0000220054AD1690143D161D36903400193EC
:1020C000019BF0E7002C014000100240000400409A
:1020D000084B026882B09A4209D18020064A400229
:1020E000916901439161936903400193019B02B09F
:1020F0007047C046004001400010024010B5040087
:1021000088B01422002103A800F0EDF92368214AC9
:10211000934216D18020204A8002516901435161C7
:10212000536903A903400093009BE023DB00039362
:1021300090200223C00504930793FEF7C7FA08B066
:1021400010BD164A9342FAD18020134BC002596940
:1021500002240143596180215A6909030240019216
:10216000019A5A690E480A435A615B6904940B400C
:102170000293029B012303A903930793FEF7A6FA98
:10218000C02303930023049405930693079303A9A4
:102190000448D2E7002C0140001002400004004037
:1021A000000400480008004830B58BB00822002128
:1021B00001A800F098F91C22002103A800F093F96F
:1021C000344C354B00252360C8239B00E3608023FB
:1021D00020006560A56025616561A361FFF78DF84A
:1021E000A84201D0FFF72AFE01A92000019502951F
:1021F000FFF7A8F9002801D0FFF720FE6023002296
:1022000003933133FF3303A9200004930592069210
:10221000079208920992FFF7F9F8002801D0FFF71A
:102220000DFE042203A92000FFF7F0F8002801D0DA
:10223000FFF704FE082203A92000FFF7E7F80028B3
:1022400001D0FFF7FBFD2000FFF758FF8020134A65
:10225000000191690143916193690021034000935A
:102260002000009BFFF748F9002801D0FFF7E6FDAA
:1022700004212000FFF740F9002801D0FFF7DEFD20
:1022800008212000FFF738F9002801D0FFF7D6FD1C
:102290000BB030BDE4010020002C014000100240D2
:1022A00030B58BB00822002101A800F01CF91C22D7
:1022B000002103A800F017F9314C324B00252360B0
:1022C000C82320009B006560A560E3602561A561CF
:1022D000FFF713F8A84201D0FFF7B0FD01A92000D5
:1022E00001950295FFF72EF9002801D0FFF7A6FD12
:1022F0006023002203933133FF3303A920000493AA
:1023000005920792FFF782F8002801D0FFF796FDAB
:10231000042203A92000FFF779F8002801D0FFF775
:102320008DFD082203A92000FFF770F8002801D0D6
:10233000FFF784FD2000FFF7E1FE0220124AD16979
:102340000143D161D3690021034000932000009B29
:10235000FFF7D2F8002801D0FFF770FD042120001C
:10236000FFF7CAF8002801D0FFF768FD0821200018
:10237000FFF7C2F8002801D0FFF760FD0BB030BDB9
:10238000A401002000040040001002400B480C4B48
:1023900010B5036096231B0243600C2200234261A8
:1023A0008360C36003618361C36103624362FFF7BB
:1023B00047FA002801D0FFF741FD10BD240200209C
:1023C0000038014010B5040088B01422002103A891
:1023D00000F089F8154B22689A4224D18020144BD2
:1023E000C00199690143996180219A69C90202403B
:1023F0000192019A5A690F480A435A615B690B407E
:102400000293029BC0230393BE3B049303A90133B1
:102410000693FEF75BF900221B201100FEF760F81F
:102420001B20FEF78DF808B010BDC04600380140F3
:1024300000100240000400480D4885460D480E4932
:102440000E4A002302E0D458C4500433C4188C420E
:10245000F9D30B4A0B4C002301E013600432A24273
:10246000FBD3FFF78BFD00F011F8FFF7CFFCFEE781
:102470000020002000000020040000205425000857
:102480000400002094020020FEE7000070B5002642
:102490000C4D0D4C641BA410A64209D1002600F07F
:1024A0002BF80A4D0A4C641BA410A64205D170BD3E
:1024B000B300EB5898470136EEE7B300EB58984766
:1024C0000136F2E74C2500084C2500084C25000891
:1024D00050250008002310B59A4200D110BDCC5CF5
:1024E000C4540133F8E703008218934200D17047C7
:1024F00019700133F9E70000F8B5C046F8BC08BC14
:102500009E467047F8B5C046F8BC08BC9E4670476A
:1025100002030405060708090A0B0C0D0E0F101024
:102520000102030405060708090A0B0C0D0E0F1023
:102530000004080200000000000000000102030483
:0C25400006070809000000000102030467
:04254C00E90000089A
:04255000C1000008BE
:0425540000127A00F7
:040000050800243992
:00000001FF
