:020000040800F2
:1000000000200020FD500008794B00087B4B0008C1
:1000100000000000000000000000000000000000E0
:100020000000000000000000000000007D4B000800
:1000300000000000000000007F4B0008814B00081A
:100040004D510008000000004D5100084D510008BE
:100050004D5100084D5100084D5100084D51000808
:1000600000000000894B00084D5100084D51000868
:10007000D54B00084D5100084D510008000000000C
:10008000A94B00084D510008000000004D51000828
:100090004D5100084D5100084D5100084D510008C8
:1000A0004D5100084D5100084D510008994B000872
:1000B0004D5100080000000000000000000000009A
:1000C00010B5064C2378002B07D1054B002B02D02E
:1000D000044800E000BF0123237010BD040000208D
:1000E00000000000BC510008044B10B5002B03D0E9
:1000F0000349044800E000BF10BDC04600000000F6
:1001000008000020BC51000802B4714649084900AB
:10011000095649008E4402BC7047C04602B471467D
:1001200049084900095C49008E4402BC7047C0463A
:10013000002243088B4274D303098B425FD3030A26
:100140008B4244D3030B8B4228D3030C8B420DD339
:10015000FF22090212BA030C8B4202D312120902C7
:1001600065D0030B8B4219D300E0090AC30B8B4205
:1001700001D3CB03C01A5241830B8B4201D38B03B3
:10018000C01A5241430B8B4201D34B03C01A524158
:10019000030B8B4201D30B03C01A5241C30A8B429B
:1001A00001D3CB02C01A5241830A8B4201D38B0286
:1001B000C01A5241430A8B4201D34B02C01A52412A
:1001C000030A8B4201D30B02C01A5241CDD2C3099C
:1001D0008B4201D3CB01C01A524183098B4201D318
:1001E0008B01C01A524143098B4201D34B01C01A03
:1001F000524103098B4201D30B01C01A5241C3087B
:100200008B4201D3CB00C01A524183088B4201D3E9
:100210008B00C01A524143088B4201D34B00C01AD5
:100220005241411A00D20146524110467047FFE741
:1002300001B5002000F0F0F802BDC0460029F7D05B
:1002400076E7704703460B437FD4002243088B4276
:1002500074D303098B425FD3030A8B4244D3030B4D
:100260008B4228D3030C8B420DD3FF22090212BA12
:10027000030C8B4202D31212090265D0030B8B428E
:1002800019D300E0090AC30B8B4201D3CB03C01A78
:100290005241830B8B4201D38B03C01A5241430B53
:1002A0008B4201D34B03C01A5241030B8B4201D343
:1002B0000B03C01A5241C30A8B4201D3CB02C01AAE
:1002C0005241830A8B4201D38B02C01A5241430A26
:1002D0008B4201D34B02C01A5241030A8B4201D315
:1002E0000B02C01A5241CDD2C3098B4201D3CB01BC
:1002F000C01A524183098B4201D38B01C01A52416B
:1003000043098B4201D34B01C01A524103098B426E
:1003100001D30B01C01A5241C3088B4201D3CB0059
:10032000C01A524183088B4201D38B00C01A52413C
:1003300043088B4201D34B00C01A5241411A00D2EC
:1003400001465241104670475DE0CA0F00D0494255
:10035000031000D34042534000229C4603098B42C5
:100360002DD3030A8B4212D3FC22890112BA030A4D
:100370008B420CD3890192118B4208D389019211CF
:100380008B4204D389013AD0921100E08909C30954
:100390008B4201D3CB01C01A524183098B4201D356
:1003A0008B01C01A524143098B4201D34B01C01A41
:1003B000524103098B4201D30B01C01A5241C308B9
:1003C0008B4201D3CB00C01A524183088B4201D328
:1003D0008B00C01A5241D9D243088B4201D34B0043
:1003E000C01A5241411A00D20146634652415B1085
:1003F000104601D34042002B00D549427047634666
:100400005B1000D3404201B5002000F005F802BDAA
:100410000029F8D016E770477047C0468446101C84
:1004200062468C46191C634600E0C0461FB501F0C9
:1004300081FB002801D40021C8421FBD10B501F086
:10044000DBFA4042013010BD10B501F073FB00280B
:1004500001DB002010BD012010BDC04610B501F029
:1004600069FB002801DD002010BD012010BDC04641
:1004700010B501F0FBFA002801DC002010BD0120BE
:1004800010BDC04610B501F0F1FA002801DA0020D5
:1004900010BD012010BDC0468446081C6146FFE720
:1004A0001FB500F0B1F8002801D40021C8421FBDDB
:1004B00010B500F043F84042013010BD10B500F017
:1004C000A3F8002801DB002010BD012010BDC046AC
:1004D00010B500F099F8002801DD002010BD0120C2
:1004E00010BDC04610B500F04FF8002801DC002018
:1004F00010BD012010BDC04610B500F045F8002821
:1005000001DA002010BD012010BDC0469E2110B5AB
:10051000C905041CFFF7F0FF002803D1201C00F0E0
:1005200071FB10BD9E21201CC90500F0CFF900F021
:1005300069FB80231B069C466044F2E770B54200CD
:1005400045024E024C00C30F6D0A120E760A240EAD
:10055000C90F0120FF2A06D0FF2C03D0A24201D1EF
:10056000B54206D070BD002DFCD1FF2CFAD1002E73
:10057000F8D18B4206D00120002AF3D12800451E75
:10058000A841EFE70020EDE7F0B5420045024C023C
:10059000C30F48006D0A120E640A000EC90FFF2A2D
:1005A0001ED0FF2821D0002A0AD16E426E41F6B239
:1005B00000280FD1002C0DD10020002D09D005E01E
:1005C000002801D1002C01D08B4211D001215842CA
:1005D0000843F0BD002EF7D0012001390843F8E7A9
:1005E000002DDED002204042F3E7002CDBD0F9E7FB
:1005F0008242EBDC04DBA542E8D80020A542E8D229
:100600000121581E0843E4E7F0B542004D024C00BA
:100610004602760A120EC30F6D0A240EC90FFF2A76
:1006200016D0FF2C18D0002A0AD170427041C0B2F7
:10063000002C15D0002805D0012001390843F0BD59
:10064000002C13D0994214D001205B421843F6E7E6
:100650000220002EF3D1E4E70220002DEFD1E2E7E3
:10066000002DE7D10020002EE9D0EDE7002DE9D1E3
:10067000EAE7A24206DCDFDBAE4203D80020AE424E
:10068000DAD3DCE7012049420843D8E7F8B55746FA
:100690004E464546DE46E0B54702460088467F0A9C
:1006A000360EC40F002E47D0FF2E24D0FB0080272B
:1006B000FF041F43002399469A467F3E43465D024E
:1006C0005800DB0F6D0A000E984643D0FF283BD040
:1006D000EB0080250022ED041D437F383618731C83
:1006E00041469B464B46614013430F2B64D87548E7
:1006F0009B00C3589F46002F42D108239946063BD2
:10070000FF269A46DAE74146022A28D0032A00D17A
:10071000CEE0012A00D0ACE0114000200022CCB293
:100720004002D205400AE407104320433CBC9046F7
:100730009946A246AB46F8BD002F15D10423994631
:10074000033B00269A46B9E7FF200222002DC5D0C0
:100750000322C3E7002D19D100200122BEE70124A6
:10076000FF220C400020DBE7380002F0B7F87626C5
:10077000431F9F4000237642361A99469A469DE7CA
:100780000C239946093BFF269A4697E7280002F07A
:10079000A5F8431F9D4076235B42181A00229DE76F
:1007A00080200024C003FF22BAE73D005246ABE799
:1007B0003D0021005246A7E73B0C9C462A04120C40
:1007C0002B0C1400604665463F043F0C7C434243BB
:1007D0005D437B43270C9B18FF18BA4203D9802343
:1007E0005B029C46654424043A04240C12199301CC
:1007F0005C1EA3413F0C920E7D191A43AD011543B7
:100800002B0104D501235E466A081D4015433200C2
:100810007F32002A25DD6B0704D00F232B40042BE9
:1008200000D004352B0103D53200274B80321D4008
:10083000FE2A94DC0124A801400AD2B20C406FE7E2
:100840008020C003074207D0054205D1284340025B
:10085000400A4446FF2263E738434002400AFF2231
:100860005EE70124A31A1B2B05DD0C4000220020AB
:1008700056E75E46CBE72A002020DA40C31A9D40A7
:100880002B005D1EAB4113435A0704D00F221A40C0
:10089000042A00D004335A0104D5012401220C405B
:1008A00000203DE701249B01580A0C40002237E755
:1008B00080200124C00328434002400A0C40FF224C
:1008C0002EE7C046F4510008FFFFFFF7F0B54F4692
:1008D000D64646464400C0B5C20F47024802400A09
:1008E000844666467B0A4800C90F9A46240E1500C6
:1008F000DB00000E8946F600FF2800D18FE00121C1
:100900004F464F403900914266D0221A002A00DC3F
:100910009DE000283DD1002E00D18BE0511E002922
:1009200000D0B5E001249B1B5A0144D59B019F09CF
:10093000380001F0D3FF05388740844200DD96E09F
:10094000041B3A0020200134E240041BA7403B0076
:100950005F1EBB41002413435A0704D00F221A40E4
:10096000042A00D004335A0127D50134FF2C00D1CA
:1009700079E001229B015B0AE4B22A405B02E405B4
:10098000580AD207204310431CBC90469946A24601
:10099000F0BDFF2CE0D08021C9040E431B2A7BDC74
:1009A00031002020D140821A9640721E96410E439B
:1009B0009B1B5A01BAD45A07D0D10122DF082A4022
:1009C000FF2C33D1002F00D1A8E08023DB033B4371
:1009D0005B025B0AFF24D1E7211A00294CDD0028C5
:1009E0002AD0FF2CB8D08020C00406431B2900DD8C
:1009F000AFE030002027C840791A8E40711E8E412A
:100A000006439B195901D6D50134FF2C00D185E04E
:100A100001227A491A405B080B4013439CE7002EE1
:100A200000D070E76BE73B1EC5D100227B025B0A5A
:100A3000E4B2A3E714008FE7002E4DD0481E002833
:100A400057D19B1901245A01B5D50224E0E7002AA9
:100A500025D1621CD2B2012A72DD9F1B7A0135D5E5
:100A6000F71A0D0064E7012200232A4086E73B00C5
:100A7000634A241A13406FE700296CD1611CC8B285
:100A800001284EDDFF2949D09B195B080C0063E764
:100A9000FF2A41D00A0081E701269B1B89E7002C31
:100AA0001CD0FF2821D08024E404524223431B2A77
:100AB00000DD96E01C002025D440AA1A93405A1E5F
:100AC00093412343F31A04000D002DE7002F00D0BB
:100AD0002EE700220024A9E70C003DE7002B58D0A8
:100AE000D243002AEED0FF28E1D13300FF240D00CD
:100AF00032E7FF2910D0010078E7002B6ED0FF24E9
:100B0000002E00D128E780225146D203114203D0A3
:100B10006146114200D13300FF241DE7FF2400236A
:100B20002CE7002CE9D1002B63D0002E00D113E775
:100B30009B195A0100D43EE7314A0C0013400BE7E1
:100B4000002C1ED1002B2FD1002E4FD033000D00D2
:100B500002E7012655E7002C1FD1002B43D0C943E3
:100B600000290BD0FF2839D01B2944DC1C0020278A
:100B7000CC40791A8B40591E8B4123439B190400AA
:100B800040E7002B1AD1002E24D180270022FF033A
:100B90001BE7330004000D00DEE6FF281ED0802492
:100BA000E40449422343DFE7002E00D1D4E69F1B33
:100BB0007A0100D437E7F31A0D00CDE6FF24002EAA
:100BC00000D1C9E680225046D2031042A4D060462C
:100BD0001042A1D133000D00FF24BDE63300FF24F5
:100BE000BAE601236EE733000400B5E600270022D1
:100BF0001CE73300B0E60123C0E7C046FFFFFF7DDE
:100C0000FFFFFFFB41024300C20F490A1B0E0020F9
:100C10007E2B0DDD9D2B0CDC802000040143952BE9
:100C20000ADC9620C31AD9404842002A00D10800A5
:100C30007047034BD018FBE7963B9940F4E7C0465A
:100C4000FFFFFF7F70B5002830D0C317C4185C4089
:100C5000C50F200001F042FE9E231B1A962B0DDCCF
:100C60009622D21A94402A006402640ADBB264021B
:100C7000DB05600AD2071843104370BD992B19DCBD
:100C80009922D21A002A29DD94402200144C1440E3
:100C9000510704D00F210A40042A00D00434620115
:100CA00013D4A401640ADBB22A00E0E70022002387
:100CB0000024DCE705222100121AD140B922D21A01
:100CC0009440621E94410C43DAE7054B2A001C4015
:100CD0009F23A4011B1A640ADBB2C8E72200D5E7F0
:100CE000FFFFFFFB10B5041E27D001F0F7FD9E2388
:100CF0001B1A962B0ADC9622D21A94406402640ACC
:100D0000DBB26402DB05600A184310BD992B17DCC7
:100D10009922D21A002A27DD94402200134C144055
:100D2000510704D00F210A40042A00D00434620184
:100D300012D4A401640ADBB2E3E700230024E0E755
:100D4000B9222100D21A91400A00511E8A41052180
:100D5000091ACC401443DBE7044B1C409F23A40139
:100D60001B1A640ADBB2CCE72200D7E7FFFFFFFBC8
:100D7000F8B54546DE4657464E460C03E0B54E00F4
:100D8000C90F88460D00610A440F0C43C7001903C0
:100D90005800DB0F9B464B0A510F0B43760D400D5D
:100DA0001900D200D84500D1AEE0351A002D00DC84
:100DB000F6E000280FD1134300D1DBE06B1E002BBF
:100DC00000D037E1BA1A9742BF41641A7F42E41B50
:100DD0000126170024E0C64B9E424DD080231B0401
:100DE0001943382D00DD07E11F2D00DD38E12020FB
:100DF000431B9A460B0050468340994613004846D1
:100E0000EB401843030050468240501E8241E940A7
:100E10001A43BA1A611A9742A441170064420C1B84
:100E2000230262D56402650A002D00D1DFE02800AC
:100E300001F054FD0300083B1F2B00DDD2E020220F
:100E40003C00D21A9D40D4409F4025439E4200DD85
:100E5000C4E09E1B731C1F2B00DDF1E02022380034
:100E60002900D21AD840914097402C000143781EA7
:100E70008741DC4000260F437B0709D00F233B400E
:100E8000042B05D03B1DBB42BF417F42E4191F002C
:100E900023022CD5964B01369E4200D19AE045465E
:100EA000944BFF081C406007760564020743240B3F
:100EB000760D00212403230B0C0D8F4A24051C43BF
:100EC0001440330523435B00ED075B082B433800D8
:100ED00019003CBC90469946A246AB46F8BD644614
:100EE000044300D111E2040067467B07C6D14546A2
:100EF0006007FF080743E4087D4B9E4230D024037F
:100F00007605240B760DD4E7331A9A46002B78DD4C
:100F1000002831D076488642AED0802000040143BC
:100F20005346382B00DCE9E00A43511E8A41002178
:100F3000D219BA42BF4109197C4217000C19230289
:100F4000D3D56B4B01369E4200D13AE10120694B6B
:100F50001C407B0807401F43E007074364088BE7FA
:100F600023003B4300D1CBE180221203144324032E
:100F7000240B9EE72E007FE70800104300D1B4E069
:100F8000581E002800D0DEE0BA18BA429B4164180F
:100F90005B42E418170001262302A6D50226D5E7F6
:100FA000002D6ED1701C4005400D012800DCF9E0D9
:100FB000B81A844687428041E51A40422D1A280219
:100FC00000D489E0D71BBA4292411C1B5242A51A99
:100FD000D84629E74546002400276AE7454CF61A1B
:100FE0002C4049E73D002838854000272EE738008F
:100FF00001F074FC20301DE70A43511E8A41002194
:1010000007E7002B00D0F3E0701C43055B0D012BBC
:1010100000DCADE0364B984200D1D1E0BA18BA42BC
:10102000BF4164187F42E419E70752081743640878
:10103000060021E72E48854200D193E01D00D0E64E
:1010400029001F3EF140202B00D18DE04022D31A11
:101050009D402F437D1EAF4100240F43002644E7EF
:101060002B000800203BD8400300202D00D17DE05C
:101070004020451BA9400A43511E8A4100211A43C2
:10108000C7E6002E50D01A4EB04257D080266B4291
:101090009946360434434B46382B00DDD6E01F2BEF
:1010A00000DD35E12026F51A2600AE40B2463E00AE
:1010B000DE40AC46350056462E436546AF407D1EA9
:1010C000AF41DC403743D71BBA4292410C1B52421E
:1010D000A41A0600D846A3E6644667462C4300D00F
:1010E000A2E600250026002706E71E00C4E6C0464B
:1010F000FF070000FFFF7FFFFFFF0F801F2B63DC58
:101100002020C31A080098409C468346534610008E
:10111000D84003005846184363469A40531E9A41EC
:1011200053460243D94003E726003E4306D0EB4333
:101130009946002BC7D0944EB042ACD10C0017009A
:101140000600D84698E6904B9A450BD08246E7E6D3
:10115000002800D09EE01800104300D1E9E01C00F8
:101160001700D846884E87E6002572E7002182E7FF
:1011700023003B43002E00D0ABE0002B00D1E7E082
:101180000B00134300D177E6BA18BA42BF41641886
:101190007F42E419230200D4F2E07C4B17001C408C
:1011A000060069E620003843002ED1D100285BD12B
:1011B0001C00144300D1A8E01C001700D8465BE6D1
:1011C00006000024002797E650460B002038C34055
:1011D00099465346202B00D195E0402350461B1AD8
:1011E00099400A43511E8A414B4600211A439FE60B
:1011F000002E30D126003E4367D0DB439A46002BB9
:101200001CD0614EB04260D05346382B00DD96E0D2
:101210001F2B00DD9FE02026F31A26009E409C46EF
:10122000B34653463E00DE4033005E461E436346EF
:101230009F407B1E9F415346DC403743BF18974277
:10124000924164185242A418060078E627437C1E97
:10125000A741002437E74C4EB04236D080265B428F
:1012600036049A463443CFE71800104300D103E612
:10127000B81A84466745AD41E01A6D42401B05022D
:1012800000D42CE6D71BBA4292411C1B5242A41A2E
:10129000D846F1E51800104300D163E7F808670766
:1012A00007438020E4080003044208D0DD0805421B
:1012B00005D1D208590711430F002C00D8467B0FE7
:1012C000E4001C43FF00304ED6E50C00170006007A
:1012D000D2E5002B38D00B00134300D142E7F808C9
:1012E000670707438020E40800030442E7D0CB08E7
:1012F0000342E4D1D208490711430F001C00DEE786
:1013000000270024D5E500216BE700250027F3E541
:101310004E462500203EF5404B462E00202B2DD07A
:101320004025ED1AAC4027437C1EA74100243743DB
:10133000C9E6802400252403134E0027DCE527435B
:101340007C1EA741002479E70C0017000E4E93E5A0
:101350000C00170090E556462300203EF3409946C6
:101360005346202B0ED0402356469B1B9C402743C0
:101370007C1EA7414B4600241F435FE70024D2E7B1
:101380001700B2E50024F2E7FF070000FFFF7FFF30
:10139000F0B557464546DE464E46E0B54C000E03D6
:1013A00087B0834692461D008046360B640DCF0FF2
:1013B000002C4FD06F4B9C4235D08023420F1B0432
:1013C000F600134333439946C30098466A4B002600
:1013D0009C460023644403932B031B0B9B466B002A
:1013E000ED0F50465B0D01955ED0624A934253D09B
:1013F0005A46D1008022400F120402430A4393460A
:101400005246D1005C4A944600226344380068404A
:1014100084460290E41A16430F2E00D9B4E0574BCD
:10142000B6009B599F460300334399466CD1002375
:101430009846023308260393CEE7CB464146039AEB
:101440000197022A65D1019B4A4C9C460023002249
:1014500098466BE00300334399464ED0002E00D1EE
:10146000BCE1300001F03AFA03000B3B1C2B00DD1D
:10147000ACE11D22D31A5A460100DA4008398E40E9
:101480001300334399465B468B40984600233C4CFF
:101490000026241A03939FE751465A46114329D147
:1014A000002293460232B1E7594601431ED05B4603
:1014B000002B00D19EE1584601F010FA03000B3BCF
:1014C0001C2B00DD8FE102005946083A91408B4603
:1014D0001D21CB1A5146D9400B0059460B435146AA
:1014E0009B469140264B00221B1A8FE700230122C6
:1014F0009B468BE75146032288E700239846013339
:1015000004260024039367E70323B14603930C26C4
:1015100062E7032A00D15CE2019B012A00D0E4E1EA
:1015200013409C4600230024002298460021120309
:10153000130B0A0D12051A432305124C4046224094
:10154000134362465B00D2075B081343190007B0E0
:101550003CBC90469946A246AB46F0BD0023802293
:101560009C4612039846034CE0E70023014C0022FE
:101570009846DBE7FF07000001FCFFFF345200083C
:101580000DFCFFFFFFFF0F80D94500D939E100D1E5
:1015900034E1002346464D469A46013C5B460A0E1E
:1015A0001B021A430B02170C039313041B0C390084
:1015B000280090460193FEF7BBFD0200019B834685
:1015C0005A43280039009146FEF738FE350C0904CD
:1015D0000D43A9450DD95B464544013BA84500D9BB
:1015E0003AE1A94500D837E102235B429C464544D5
:1015F000E3444B46EB1A390018000493FEF798FDBC
:10160000019B05004343390004989946FEF716FEF6
:10161000330409041B0C0B43994509D943446A1E42
:10162000984500D91AE1994500D817E1023D434495
:101630004A469B1A5A4612042A4303999346100CB1
:101640000A0C914609045A46090C4E460D00120434
:10165000120C4543059151437243704352190E0CCD
:10166000B218954203D980256D02AC466044150C32
:1016700009041204090C28185218834200D2CEE043
:1016800000D1C8E01D1A53469E1AB24592415242FB
:10169000AB1A9A46984500D117E139001800FEF7B9
:1016A00047FD019B05004343390050460493FEF774
:1016B000C5FD04980B04310C1943884209D94144F3
:1016C0006B1E884500D907E1884200D804E1023D3D
:1016D0004144049BCB1A180039000493FEF728FDFF
:1016E000019B82464343390004980193FEF7A6FD0F
:1016F00001980B043104090C194388420DD9534653
:101700004144013B884500D9E8E0884200D8E5E043
:1017100002235B429C464144E244019B2D04CE1AC5
:1017200051462943059D4F462A000B04080C1B0C0B
:101730005A4345437B4378435B19170CFB189D4282
:1017400003D980256D02AC4660441D0C12041B04B5
:10175000120C28189B18864200D293E000D18EE02C
:1017600001231943A04BE318002B00DC99E04A0742
:1017700000D09EE05A46D20106D55A469B4B1A40ED
:1017800080239346DB00E318994A934268DD0123E6
:10179000029A984C1A400023944698460022C5E6C7
:1017A00080224B46120313420AD05B46134206D1F5
:1017B0001A431203120BAC4688468E4CB6E64B46D3
:1017C0001A431203120BBC468A4CAFE603005A467A
:1017D000283B9A4000239146984657E6584601F028
:1017E0007DF8203040E603005246283B9A40002115
:1017F000934677E601F072F820305FE6884500D224
:10180000C7E64B46DE075D0843465B081E4343467A
:10181000DB079A46C2E60025924500D333E7039ED4
:101820005946B446E244B245AD416D424544EB18D9
:101830000139984507D2984200D97FE000D1BCE039
:101840001D1A8B461FE79845FAD1039D5545F2D9DD
:1018500043468B461D1A16E79B46CAE61500E7E687
:101860005A46C90852070A435B0590465C0D5A4622
:101870000123029952021940120B8C4656E6002BA6
:1018800000D16FE746444A1EB04529D9110086426F
:1018900000D065E7039A934200D061E762E7012137
:1018A00049420120C21A382A21DD029B03409C468E
:1018B00038E60F220A40042A00D15BE70A00111D16
:1018C000914292415242934454E7474BE318002B14
:1018D000E5DD01225242F2E71D00FAE69A461CE7D6
:1018E000B04239D86ED011003AE702933AE71F2A86
:1018F0003CDC20239B1A0C005846994098404B1E14
:1019000099415B46D440D340204308431A00430723
:1019100009D00F230340042B05D00100081D884285
:101920009B415B42D21813023AD50123029A01244B
:101930001A400023944698460022F7E502214942C6
:101940008C46039DE344AC46E244AA45AD416D425A
:101950004544ED182D1A96E68A1E03994D008D42D6
:10196000894149424144761803958FE71F20404240
:10197000C31A5846D8400300202A28D040205D468C
:10198000821A954029434A1E914119430723002298
:101990000B4009D00F2300220B400800042BBDD1BF
:1019A000010053075202120BC9081943012388464C
:1019B0000299002419408C46B8E55245BED88B46A2
:1019C000002560E6039D9D42C6D3110062E7002515
:1019D000D8E780225B4612031A43019B1203120BC5
:1019E0009C468846034CA1E5FF030000FFFFFFFE75
:1019F000FE070000FF070000F0B54F464646D646FA
:101A00005C00C0B51F03DB0F9A46174B0E034D0059
:101A100084468046360B6D0DC90F91463F0B640D11
:101A200001209D4208D09C4201D0A5420BD01CBC95
:101A300090469946A246F0BD63463343F7D1AC4287
:101A4000F5D13A43F3D10120BE42F0D1C845EED1E1
:101A5000514507D0002DEAD163461E433000461E93
:101A6000B041E4E70020E2E7FF070000F0B545469B
:101A7000DE4657464E46E0B51F033D0B2C4F0E0386
:101A80004C00AB465D008446360B640DC90F904692
:101A90006D0DDB0FBC422AD0254FBD422DD0002C4E
:101AA0000FD130430700814678427841C0B2002D03
:101AB00017D15F463A4314D14B460020002B0AD081
:101AC00006E0002D02D15846024301D0994218D0B9
:101AD0004842012108433CBC90469946A246AB4689
:101AE000F0BD0028F2D00120013B1843F3E7370096
:101AF0000743D1D002204042EDE75F461743CED0E6
:101B0000F8E7AC42E4DC03DA481E01210843E2E7CF
:101B10005E45DDD806D000205E45DCD20123481E9C
:101B20001843D8E7C445D3D80020C445F6D3D2E73C
:101B3000FF070000F0B54E464546DE4657465C00BE
:101B4000E0B51F03DB0F99462A4B0E034D00C90F6A
:101B50008446360B6D0D8B4690463F0B640D9D42BF
:101B600020D0244B9C4222D0002D12D1304343423E
:101B70004341DBB2002C1FD0002B0CD04B46012080
:101B8000013B034318003CBC90469946A246AB4635
:101B9000F0BD002C16D0CB4517D05B46594201232F
:101BA0000B43EFE7310002230143EBD1D9E73900C2
:101BB00002231143E6D1D7E73A43DDD100230028C1
:101BC000E0D0EAE73A43E6D1E7E7A542E5DC05DB0A
:101BD000BE42E2D807D00023BE42D3D259460123E9
:101BE00001390B43CEE7C445D7D80023C445F5D30C
:101BF000C8E7C046FF070000F0B557464546DE4639
:101C00004E46E0B50C0398464E00230B87B0070004
:101C100092469B46760DCD0F002E6BD06D4B9E42AB
:101C200035D080245B46420F2404DB0014431C4360
:101C3000C3009946684BA3469C4600230027664490
:101C4000029343461C035A00DB0F5046240B520DEF
:101C5000984600D176E05F4B9A426DD08023410FC9
:101C60001B040B435C49E4008C461C43C30000206A
:101C700062444146B6186940721C0191944607437C
:101C80000F2F00D9B0E0554ABF00D25997465B46A6
:101C90000343994600D087E000239B460233082780
:101CA0000293CEE742460192022867D0032800D172
:101CB0000EE2012800D062E10023002400229946B0
:101CC00001990140CDB2002112030B0D120B1B052F
:101CD0001343434A240513401C436400ED07640882
:101CE0002C434846210007B03CBC90469946A2468A
:101CF000AB46F0BD034399464FD05B46002B00D165
:101D000089E1584600F0EAFD03000B3B1C2B00DD87
:101D10007AE11D22D31A3A0001005C46DA40083904
:101D20008C4013008F4023439B46B94600232D4E21
:101D30000027361A029384E7534623432AD100240E
:101D4000022096E75346234320D0002C00D157E1D0
:101D5000200000F0C3FD03000B3B1C2B00DD49E11C
:101D60001D21CB1A51460200D9405346083A9440EF
:101D700093400C431B4A121A00207AE70125019B6D
:101D8000144C1D400023002299469CE700240022A9
:101D900001206EE7534603206BE700239B46013387
:101DA0000427002602934CE7032381460C27029365
:101DB00047E780220023002512039946054C82E75D
:101DC0005C464B4602986FE75C464B46019502988D
:101DD0006AE7C046FF07000001FCFFFF74520008DD
:101DE000FFFF0F800DFCFFFF4A464946170C1A0CF7
:101DF0001B041B0C08041900000C41431500884605
:101E000019007D4379430395894629001500454310
:101E10004D44029545462D0CAA46029D5544A945C0
:101E200006D98A46802149028946CA44514603910F
:101E3000290C0491414609042D04090C8846290007
:101E4000250C24044144240C05912100414388467B
:101E5000210079438A466843414650448146080C34
:101E600048446F43824503D98021490289464F4443
:101E7000010C894639004944029141460F040499F6
:101E80003F0C88460004C0198044414604915946DD
:101E90000F0C0904090C884659438A4639005143FE
:101EA000894641464A435146090C8B467B43D2182A
:101EB0005A44934203D980235B029B46D94451463E
:101EC0000904090C8A46414661437C43130C120401
:101ED0004B445244A1468A463C0041466C434D4324
:101EE00051464D440F0C7D19A94503D98021490263
:101EF00088464444049F0399B84641448B46834531
:101F0000804141428846514608042F04000C3F1886
:101F10005846029910188946904292414F44BA4659
:101F2000524299469346C244D144CB448F42BF416A
:101F3000C245894199459B41934592417F4249421F
:101F40002D0C52420F435B4213437F19FF185B462F
:101F50003C19DB0D059A64021C43430213435D1ECA
:101F6000AB415A46C00D034352021343E20156D51A
:101F700001205A0803401343E207134364085A48F8
:101F8000604400284DDD5A0709D00F221A40042A68
:101F900005D01A1D9A429B415B42E4181300E201EE
:101FA00004D58020514AC00014406044504A9042F9
:101FB00000DDE3E60125DB0862071A436402019BAA
:101FC0009146220B4405640D1D407CE68022594653
:101FD0001203114208D0144206D122431203120BFD
:101FE00045469946434C6EE65B461A431203120B74
:101FF000404C68E603005446283B9C400023B9E669
:1020000000F06CFC2030A6E60300283B9F40002334
:10201000BB4699468AE600F061FC203074E6B4467F
:10202000ADE701252A1A382A06DD019B00241D4050
:1020300000230022994646E61F2A21DC20252000A5
:10204000AD1A1E00AB40A840D6405D1EAB413043E8
:102050001843D440430709D00F230340042B05D075
:102060000300181D98429B415B42E418230221D5CE
:102070000125019B01241D4000230022994622E6F0
:102080001F2521006D42281AC1400800202A1DD0BA
:102090005F35AA1A944023435C1EA34107250343DE
:1020A0001D400022002D09D00F2200241A401800E4
:1020B000042AD6D1030065076402220BDB082B43F8
:1020C00001259946019B00241D40FCE50024E2E720
:1020D000802201251203224301991203120B0D40A5
:1020E0009946044CEFE5C046FF030000FFFFFFFEEA
:1020F000FE070000FF070000F0B54646D6464F46F3
:102100000C03C0B5CD0F4E00610A440F0C43C10053
:102110005800400D84468A460F001903500F490AA3
:102120000143C648760DA846DB0FD200844500D196
:10213000D8E001204340AB4200D1A6E06046351A0A
:10214000002D00DC05E1002810D10B00134300D165
:10215000D7E06B1E002B00D04BE153469F1ABA45C7
:102160008041641A4042241A01261EE0B34B9E426D
:1021700048D080231B041943382D00DD19E11F2DA1
:1021800000DD4CE120230F005B1B10009A409F40B4
:10219000E840531E9A41E940074317435346DF1B6B
:1021A000611ABA45A44164420C1B230200D4C5E065
:1021B0006402650A002D00D1F6E0280000F08EFBD5
:1021C0000300083B1F2B00DDE9E020223C00D21A6F
:1021D0009D40D4409F4025439E4200DDDBE09E1B96
:1021E000731C1F2B00DD0AE120223800D21A2900BF
:1021F00097402C009140D8407A1E9741DC40002641
:1022000001430F437B0709D00F233B40042B05D02C
:102210003B1DBB42BF417F42E4191F00230225D56D
:10222000864B01369E4200D1AFE0854B01251C4014
:1022300043466207FF08640276051743240B760DB8
:102240001D4000212403230B0C0D7E4A24051C4352
:102250001440330523435B00ED075B082B43380034
:1022600019001CBC90469946A246F0BD0125434684
:102270006207FF081743E4081D40704B9E4236D0AA
:1022800024037605240B760DDBE76346F31A002B57
:1022900000DC94E06046002835D068488642B1D022
:1022A00080273F043943382B00DCFDE00A43170048
:1022B00000217A1E974157445745804109194442ED
:1022C0000C1923023AD55D4B01369E4200D14BE1F9
:1022D00001225B4B1C407B0817401F43E20717435A
:1022E00064088FE70800104300D024E721E72300AB
:1022F0003B4300D1B9E18022120314432403240B91
:102300009FE72E007EE70800104300D1CAE0581E68
:102310008446002800D0E7E05244524580416418CA
:102320004042241817000126230207D50226CFE7D2
:1023300064462C4300D1B3E12C0067467B0700D0F4
:1023400062E76307FF081F4301254346E4081D4079
:1023500093E7002D78D1751C6D056D0D012D00DC06
:10236000F2E05046801A8245BF41651A7F42ED1B5C
:102370008446280200D48CE05046171ABA42924193
:102380000C1B5542651B984614E701254346002463
:102390001D40002755E72A4CF61A2C4032E73D0035
:1023A00028388540002717E7380000F097FA2030DA
:1023B00006E70A43170000217A1E9741EEE6002B3C
:1023C00000D0E5E0731C9C465B055B0D012B00DC37
:1023D0009FE01A4B9C4500D1C5E0524452458041D4
:1023E000641840422418E7075208174364086646F9
:1023F00008E71248854200D185E01D00BCE62900AF
:102400001F3EF140202B00D17FE04022D31A9D4097
:102410002F437D1EAF4100240F4300268EE72B0083
:102420000F00203BDF40202D71D040235D1BA940D1
:102430000A43511E8A4100211743AFE6FF070000FF
:10244000FFFF7FFFFFFF0F80002E3ED0B34EB4454D
:1024500045D0802636046D423443382D00DDA8E097
:102460001F2D00DD1FE1202627005046761BB740B8
:10247000E84007435046B040461EB041EC40384368
:10248000171ABA4292410C1B5242A41A6646984649
:102490008BE6644667462C4300D08BE60025002679
:1024A0000027EAE61E00ADE61F2B60DC2027F81AA5
:1024B0000F00844687401000D840074360468240A2
:1024C000501E8241D9401743F5E626005046064388
:1024D00005D0ED43002DD3D0904EB445BDD10C00B6
:1024E0001700664698468DE68C4883420BD06346BB
:1024F000D9E6002D00D096E00800104300D1E2E0BC
:102500000C0017009846854E7CE6002580E70021E8
:102510008EE7230050460343002E00D0A8E0002B96
:1025200000D1DEE00B00134300D16BE6524452456C
:1025300080416418404224181700230200D4FDE6AD
:10254000774B66461C405DE6250050460543002E4D
:10255000CFD1002D4FD10C00144300D1A0E00C00CE
:10256000170098464EE666460024002785E61F00C1
:102570000800203FF8400700202B00D18EE04020CB
:10258000C31A99400A43511E8A410021174392E61B
:10259000002E14D126005046064362D0DB43002BA8
:1025A0005CD187189742924164185242A41866463B
:1025B00087E650462043441EA041002460E7574E62
:1025C000B4454ED0802636045B423443382B00DDC0
:1025D0007FE01F2B00DD8BE0202627005046F61AF7
:1025E000B740D84007435046B040461EB04107436D
:1025F000DC40BF18D6E70D00154300D102E6504677
:10260000801A8245BF41651A7F42ED1B844628022D
:1026100000D48DE65046171ABA4292410C1B524222
:10262000A41A9846EEE50D00154300D16BE750461D
:102630006707C00807438020E4080003044207D06E
:10264000CD08054204D12C009846D70849070F430E
:102650007B0FE4001C43FF00304ED3E52F4EB44502
:10266000B4D10C0017006646CCE500270024E8E54D
:10267000002B39D00B00134300D144E7C008670793
:1026800007438020E40800030442E1D0CB08034262
:10269000DED1D70849070F431C00D9E7002171E7B5
:1026A00000250027E9E52E002700203EF740202DD9
:1026B0002FD04026751BAC4050462043441EA041FD
:1026C00000243843DCE6802400252403134E002731
:1026D000D3E5504620430700781E87410024BF18E9
:1026E00060E70C0017008DE50C0017000B4E89E524
:1026F0001E002700203EF740202B0CD04026F31A66
:102700009C4050462043441EA04107430024BF186C
:1027100048E70024D0E70024F3E7C046FF070000A5
:10272000FFFF7FFF4100090E4B1C70B5DBB2460274
:10273000750AC40F012B14DDE0239B006D07360BD7
:10274000CB1800210A0D280012051C4D32435B05F1
:102750002A405B0813435B00E4075B08234319002E
:1027600070BD002914D1002D1ED0280000F0B6F84D
:102770000A281CDC0B232A001B1ADA40030015333D
:102780009D400F4B12031B1A5B05160B5B0DD8E720
:10279000002D06D0320B802636036D071643094BF9
:1027A000CFE7084B0026CCE700230026C9E703004B
:1027B0002A000B3B9A400025E3E7C046FFFF0F804D
:1027C00089030000FF070000F0B54C00640D0B0307
:1027D000621C450F5B0A52052B43C90FC500520D01
:1027E000012A28DD3A4AA618FE2E1BDC002E3EDD0B
:1027F00080010200501E82416D0F2A43DB0013430B
:102800005A0704D00F221A40042A00D00433802231
:10281000D2041A405AD00136FF2E03D09B015B0A26
:10282000F4B201E0FF2400235802E405400AC9077E
:1028300020430843F0BD002C07D01D43F2D0802078
:10284000DB0080040343FF26DAE72B4303D0052394
:10285000DB08FF2C03D05B025B0AE4B2E4E7002B49
:1028600032D08020C00303435B025B0ADCE7320006
:10287000173214DB80221E2712041343BF1B1F2FA5
:102880000FDC144A944664442A00A5402E00A3405D
:10289000751EAE41FA40334313430026B0E70024CF
:1028A000D5E702225242961B1A00F240202F09D08F
:1028B000094884466444A3402B435D1EAB41002677
:1028C00013439DE70023F7E70023ADE73400BFE79C
:1028D00080FCFFFF82FCFFFFA2FCFFFF1C21012305
:1028E0001B04984201D3000C10391B0A984201D3F3
:1028F000000A08391B09984201D30009043902A2D1
:10290000105C40187047C046040302020101010137
:10291000000000000000000010B5040000F084FF7B
:10292000FA218900FDF704FC00F0C8FA012000221A
:102930002100404200F088FA002010BD1023064A12
:1029400010B5116800200B431360FFF7E5FF02F09C
:10295000FBF8002010BDC04600200240024A136868
:10296000013313607047C04620000020014B1868F7
:102970007047C04620000020002373B50321019357
:10298000036804009A680A40012A07D119681142B5
:1029900001D0002076BDDA681204FAD49968194A89
:1029A000114208D010230120626C13436364A36CAE
:1029B0000343A364EEE7012299680A439A60124B2D
:1029C00012491868FDF7B4FB0190019B002B15D14B
:1029D000FFF7CCFF0125060023681B682B42D8D1E6
:1029E000FFF7C4FF801B0228F6D91023626C012078
:1029F00013436364A36C2B43A364CBE7019B013BAC
:102A00000193E2E7170000800000002040420F0021
:102A1000F8B504000120002C72D0636C002B06D1A5
:102A200022004032A3642000137001F0EDFC636CBF
:102A3000DB0600D579E0042223689868104000D0B6
:102A400073E0626C4249114002220A43032162642E
:102A50009A680A40012A00D06DE01968114202D13B
:102A6000DA68120467D5DA683A49256A0A40DA60FA
:102A7000A2696F039103E269D2031143626B013AC9
:102A8000561EB2411603E268114322690F43022A1F
:102A900000D10420226B616A52003A433243024360
:102AA000012904D1002D2CD1802149020A43C220E2
:102AB000A16AFF30814202D0E06A01430A438020CC
:102AC000D96840051143D960A16B814202D0481EEC
:102AD000062807D8072558692940A843586158692E
:102AE00001435961DB681C490B409A4211D1002017
:102AF0000322A064636C93431A00012313436364AD
:102B0000F8BD2020656C28436064A06C0143A1647B
:102B1000CDE71222636C012093431A001023134364
:102B20006364A36C0343A364EAE71023626C01208F
:102B300013436364E4E71821DA688A43A1680A430F
:102B4000DA601969626889008908114319618AE7A6
:102B5000FDFEFFFF1902FEFFE7FF3F83036870B52C
:102B60009B68040002205B0720D4250040352B78A9
:102B7000012B1BD001232B70E369012B11D1636C56
:102B8000124A61691A4080235B0013436364002387
:102B90001C22A3642B7023681A60082907D0596887
:102BA0000BE02000FFF7E8FE0028E8D070BD04210C
:102BB0005A688A435A60182259680A435A600422A4
:102BC000996800200A439A60F0E7C046FEF0FFFFD4
:102BD000704770470422036870B5196804001142F9
:102BE00002D05968114206D108221968114228D032
:102BF0005968114225D0626CD20604D48022616CDF
:102C000092000A436264C022D9681201114212D1B3
:102C1000226A002A0FD11A6812070CD59A68520747
:102C20003CD40C215A688A435A60636C204A1A408B
:102C3000012313436364200001F068FF0C22236822
:102C40001A60802523681A682A420CD05B682B42E0
:102C500009D08023626C5B02134363642000FFF79A
:102C6000B7FF23681D60102223681968114214D031
:102C70005968114211D0626B012A02D0DA68D2077A
:102C800008D50222A16C20000A43A26410221A6017
:102C9000FFF79FFF102223681A6070BD2023626C2B
:102CA000134363640123A26C1343A364C3E7C046C8
:102CB000FEFEFFFFF7B500230400019340342378A4
:102CC00005000220012B2BD001232A68AE6B9068EF
:102CD0002370400752D42C484F680D6887423BD080
:102CE000AB4018008023976A5B05384390629E4290
:102CF0000FD0013E062E0CD98B6807215069084081
:102D0000834206D050690B408843506150690343A9
:102D100053612B00103B012B03D9002000232370AB
:102D2000FEBD1A4B80221968102D13D0D2030A431E
:102D30001A60102DF1D1164B16491868FDF7F8F9F5
:102D40000A2358430190019B002BE6D0019B013BD5
:102D50000193F8E71204EAE7AB40916A99432B002C
:102D6000103B9162012BD8D8084B1A68102D03D064
:102D700009490A401A60D0E70849FAE72022696C3D
:102D800018000A436A64C9E70110000008270140DF
:102D90000000002040420F00FFFFBFFFFFFF7FFF4A
:102DA000F8B506004036337804000220012B42D0EB
:102DB00001230321337023689A680A40012A05D150
:102DC0001968114238D1DA68120435D4626C1D4991
:102DD000114002220A4303216264DD68DA688A43F3
:102DE000DA608022996812060A439A60FFF7BEFDF6
:102DF000070023689A68002A0EDB0322D968154071
:102E00000D43DD60636C002093431A0001231343DC
:102E10006364002333700EE0FFF7A8FDC01B022897
:102E2000E7D91222636C012093431A001023134345
:102E3000636400233370F8BD2023626C01201343C8
:102E40006364E6E7FDFEFFFF70B58901002814DA30
:102E50000F23C0B20340083B114A9B089B009B18FC
:102E6000032210409040FC32150011408540814003
:102E7000DC69AC432143D96170BD03258308284038
:102E8000A840FC352E00074A9B009B18C0228640B4
:102E90002940814092009C58B44321439950EBE76C
:102EA00000ED00E000E100E01F2318401E3B8340DE
:102EB000014A13607047C04600E100E0094A431E22
:102EC000012093420DD8C021074A08485360036A85
:102ED00009061B021B0A0B430362002007239060B4
:102EE00013607047FFFFFF0010E000E000ED00E01E
:102EF00070B504000120002C28D002232068A51CF6
:102F0000EB770268124BA1681A4063680B43E168D3
:102F10000B4321690B4361690B43A1690B43E169D1
:102F20000B43134303600B4B1421C018FDF700F94A
:102F3000094B80002064E36300200123A062E0626B
:102F400020636063A063E418EB77E07770BDC04650
:102F50000FC0FFFFF8FFFDBF0000024070B5841CEA
:102F6000E37F022B04D004238363033B180070BD6E
:102F70000E210368056C1A688A431A6001221968D9
:102F8000914319601100A940C36B5960E277002496
:102F90008318426BDC771300A242E7D090472300EE
:102FA000E4E7F8B504273E00016CC26B8E4015685B
:102FB00003681C682E420DD03C420BD0196889066C
:102FC00002D41968B9431960C36A5660002B19D03E
:102FD000984717E002273E008E402E4213D03C4215
:102FE00011D01968890606D40A241968A14319600A
:102FF0000121C319D97756600022431CDA77836A0E
:103000009342E5D1F8BD082637008F403D42F9D004
:103010003442F7D00E251C68AC431C6001231C0011
:103020008C405460821C8363D3770022C318DA7704
:10303000036BE5E7F0B50B6887B0029300230191BD
:10304000029ADA4001D107B0F0BD01229A40039202
:103050000399029A0A40009200D18CE0019A102153
:10306000526816008E43022E0ED107251D40AD007A
:103070000139A940DC08A4000419276A8F4301998B
:103080000969A9400F43276203245F00BC40E44361
:103090000568013E2540AC4603251540BD4061460C
:1030A0000D430560012E0FD801998668CD68264032
:1030B000BD40354385604668039915098E4301215B
:1030C0000D409D4035434560C56801992C408D6891
:1030D0008021BD4049052C43C4600A424BD00121E8
:1030E000264C0326A5691E400D43A561A4699D08D1
:1030F0000C400594059C0F242149AD00B6006D18C5
:10310000B4409021AF68C905A743002488420CD081
:103110001C490134884208D01B490134884204D03C
:103120001A490334884200D1023CB44000993C4320
:103130000E00AC60164CCD4327683E43D10301D44A
:103140003E002E4026606768009E3E43910301D4F6
:103150003E002E406660A768009E3E43D10201D427
:103160003E002E40A660E668009F3743920201D4DD
:103170002E403700E760013362E7C046001002408E
:10318000000001400004004800080048000C00480E
:103190000004014070B504000120002C3FD0250040
:1031A00041352B78DBB2002B05D122004032137061
:1031B000200001F0D5FB242301212B702368E06857
:1031C0001A68A6688A431A6061681A4A0A401A6136
:1031D0009968194A11409960012821D1802109027A
:1031E000314399605868154901435960D9680020F6
:1031F0000A40DA60616922690A43A16909020A4347
:10320000DA60216AE2690A431A60012219680A43F6
:103210001A60202360642B7020634234207070BDDC
:1032200084210902314399600228DBD18021090100
:103230005960D7E7FFFFFFF0FF7FFFFF008000022C
:10324000F0B50400413422780300D2B20220202AD3
:1032500018D11D0040352E78012E13D01B68223066
:1032600020701E68233886431E601E68064F3E404D
:103270001E601E68314319601968084318600020F9
:1032800022702870F0BDC046FFEFFFFFF0B50500CB
:1032900041352A780300D2B20220202A17D11C001F
:1032A00040342678012E12D01B68223028701E6808
:1032B000233886431E601E68054F09023E40314395
:1032C000196019680843186000202A702070F0BD4A
:1032D000FFF0FFFFF0B5036885B00500DB072FD4D2
:1032E0002B689B0700D581E02B681B0700D5BCE04D
:1032F0002B685B0700D5DFE02B68DB061AD56A690F
:10330000B54C0423012A00D04BE1616B02260B432C
:103310006363636B1A436263FFF728FB0700636B09
:10332000334200D136E1F821626BAB698A43DB009E
:1033300013436363296A002900D059E1002013E098
:103340000C21A54C62680A40042A06D063680B4031
:10335000082B0BD16368DB0308D523689B03BFD51B
:103360006B68002BBCD1012005B0F0BD6B68012B50
:1033700013D1802322685B0213432360FFF7F6FA20
:1033800080260700B60223683342A9D1FFF7EEFA80
:10339000C01B6428F7D90320E6E7002B16D1236869
:1033A0008E4A80261340236023688D4AB60213405C
:1033B0002360FFF7DBFA07002368334200D18FE771
:1033C000FFF7D4FAC01B6428F6D9E4E7052B05D132
:1033D00080232268DB0213432360CAE723687F4A05
:1033E0001340236023687E4A1340C6E70C227A4CC0
:1033F0006368134206D063681340082B10D16368DA
:10340000DB030DD423689B0702D5EB68012BAAD1FF
:10341000F82122682B698A43DB001343236063E7AA
:10342000EA680123002A0FD0226802261343236092
:10343000FFF79CFA070023683342E9D1FFF796FAB9
:10344000C01B0228F7D9A6E7226802269A43226009
:10345000FFF78CFA07002368334200D144E7FFF7F7
:1034600085FAC01B0228F6D995E7EA6901235A4C70
:10347000002A10D0626A022613436362FFF776FACD
:103480000700636A334200D032E7FFF76FFAC01BD0
:103490000228F6D97FE7626A02269A436262FFF742
:1034A00065FA0700636A334200D121E7FFF75EFA4D
:1034B000C01B0228F6D96EE780220021464C520537
:1034C000E3690091134208D1E3691343E361E369BF
:1034D00013400393039B012300938027414E7F00F9
:1034E00033683B4206D0AB68012B13D1226A1343E9
:1034F000236230E033683B433360FFF737FA0190D3
:1035000033683B42EFD1FFF731FA019BC01A6428C0
:10351000F6D940E70122002B14D1236A02279343F6
:103520002362236A033293432362FFF71FFA0600E4
:10353000236A3B4225D0FFF719FA2B4B801B984298
:10354000F6D928E7052B0BD1216A013B0B432362F7
:10355000236A1A432262FFF709FA022706000DE0E8
:10356000236A934304222362236A9343C0E7FFF74D
:10357000FDF91D4B801B984200D90CE7236A3B42A2
:10358000F5D0009B012B00D0B6E6E369174A134043
:10359000E361B1E6FFF7EAF9C01B022800D8BEE6F6
:1035A000F9E6053203D1626B9A436263BBE6626B54
:1035B0000226134301226363636B93436363FFF744
:1035C000D5F90700636B334200D1B3E6FFF7CEF9BC
:1035D000C01B0228F6D9DEE600100240FFFFFEFF06
:1035E000FFFFFBFF0070004088130000FFFFFFEFAC
:1035F0000C22264C012063681340082B00D1B3E64F
:103600002368234A1340236002292FD1FFF7AEF924
:1036100080260700B6042368334221D10F22E36AD3
:103620009343EA6A1343E362696AAB6A62680B43D5
:10363000184980250A4013436360802322685B0495
:1036400013432360FFF792F90600AD0423682B4271
:1036500000D073E6FFF78AF9801B0228F6D99AE6B4
:10366000FFF784F9C01B0228D5D994E6FFF77EF94D
:1036700080250600AD0423682B4200D15EE6FFF7EB
:1036800075F9801B0228F6D985E6C0460010024075
:10369000FFFFFFFEFFFFC2FF70B5144C88B0102281
:1036A0002100684601F078FD210004AD10221031A0
:1036B000280001F071FD0C220D4E73681A40082A93
:1036C00011D10F206A46990C0140545CF26A024005
:1036D000A95CDB0305D50748FCF72AFD604308B069
:1036E00070BD0548FAE70348F9E7C046D451000821
:1036F0000010024000127A0000093D00F7B50122D7
:10370000434C060023680F0013408B421CD33268E1
:10371000930723D4D30729D4012322681A40974260
:1037200067D333683B4C5B076AD4FFF7B5FF636828
:10373000394A1B061B0FD35CD840384B1860002059
:10374000FFF7EAF8002008E0236893430B43236067
:10375000236813409942DAD00120FEBDF0202D49A4
:103760004B688343B06803434B60D3E7294D7268CD
:103770002B68012A1AD19B03EED503216B688B437A
:1037800013436B60FFF7F2F873680190012B15D1BA
:103790000C226B681340042BBED0FFF7E7F8019BA7
:1037A000C01A1F4B9842F3D90320D6E7022A02D150
:1037B0009B01E2D4D0E79B07DFD4CDE7022B12D0E8
:1037C0000C226B681342A7D0FFF7D0F8019BC01AF8
:1037D000134B9842F4D9E7E7FFF7C8F8019BC01AEA
:1037E0000F4B9842E0D80C226B681340082BF3D1A2
:1037F00092E722689A43226022681A42ACD190E78D
:103800006368084A1340F268134363608DE7C0465B
:103810000020024000100240B852000800000020C2
:1038200088130000FFF8FFFF014B18687047C0467F
:1038300000000020044B054A5B685B055B0FD35C0E
:10384000034A1068D840704700100240C852000870
:1038500000000020F0B5036885B00500DB0328D523
:1038600080220021374C5205E3690091134208D1B0
:10387000E3691343E361E36913400393039B01236B
:1038800000938027304E7F0033683B4226D0C02211
:10389000236A920013402D4E32D1236A1E406B687A
:1038A0001E43009B2662012B03D1E369284A134083
:1038B000E3612A68D30706D5032022490B6B8343B3
:1038C000A86803430B630020930617D510211D4AF7
:1038D000136B8B43E9680B4313630FE033683B437F
:1038E0003360FFF743F8019033683B42CFD1FFF7D5
:1038F0003DF8019BC01A6428F6D9032005B0F0BD3D
:1039000069680A409342C8D08023226A206A110065
:103910005B0203432362236A0E4831400340236263
:103920002162D307B9D5FFF721F807000222236AE5
:103930001342B2D1FFF71AF8074BC01B9842F5D9D2
:10394000DBE7C0460010024000700040FFFCFFFFB4
:10395000FFFFFFEFFFFFFEFF881300000122036A55
:1039600070B593430362036A446885697232954374
:103970000A681543022293438A681343144A90420B
:1039800008D0144EB04205D0134EB04202D0134EB0
:10399000B04216D10826B343CE6833430426B3435E
:1039A000904208D00B4A904205D00B4A904202D078
:1039B0000A4A904205D10A4A8E6922404C69344332
:1039C00014434A68446085614263036270BDC04627
:1039D000002C0140004001400044014000480140EB
:1039E000FFFCFFFF70B57325036A174A134003629B
:1039F000036A4268C469AC430D682C43134D2B40E5
:103A00008D682D022B43124DA8420ED1114D1D4041
:103A1000CB681B022B43104D2B40104D4E691540B7
:103A20008A69324312012A4308E00D4DA842F4D0BE
:103A30000C4DA842F1D00C4DA842EED042604A682D
:103A4000C461C263036270BDFFFEFFFFFFFDFFFFA5
:103A5000002C0140FFF7FFFFFFFBFFFFFFCFFFFF41
:103A6000004001400044014000480140036A144AFC
:103A700030B513400362026A124C4368C5692540A1
:103A80000C6824022543104C22408C6824032243F6
:103A90000E4CA04208D00E4CA04205D00D4CA042C6
:103AA00002D00D4CA04204D10C4C23404C69A4011F
:103AB000234343604B68C5610364026230BDC04666
:103AC000FFEFFFFFFF8CFFFFFFDFFFFF002C014038
:103AD000004001400044014000480140FFBFFFFF9B
:103AE0001C4A10B50368904202D01B4CA04208D17A
:103AF0007024A3434C68234390420ED0164CA0423E
:103B00000BD0164CA04208D0154CA04205D0154C45
:103B1000A04202D0144CA04203D1144C2340CC68E4
:103B200023438024A3434C69234303608B68C3620F
:103B30000B688362904208D0094B984205D0094B2C
:103B4000984202D0084B984201D10B6903630123CC
:103B5000436110BD002C01400004004000200040E3
:103B6000004001400044014000480140FFFCFFFFCD
:103B700070B504000120002C14D025003D352B78B1
:103B8000DBB2002B05D122003C321370200001F083
:103B9000EBF8022320682B70211DFFF7A1FF012302
:103BA00000202B7070BD70B504000120002C14D0D3
:103BB00025003D352B78DBB2002B05D122003C32AD
:103BC0001370200001F0ACF8022320682B70211D37
:103BD000FFF786FF012300202B7070BD1022036ABF
:103BE00070B593430362026A164D436884692C40A2
:103BF0000D682D022C432025AA438D682D012A43F0
:103C0000114DA8420FD18025AA431500CA681201A0
:103C10002A434025AA430D4D4E691D408B6933430D
:103C20009B002B4308E00A4DA842F4D0094DA8425E
:103C3000F1D0094DA842EED043604B6884618363A4
:103C4000026270BDFF8CFFFF002C0140FFF3FFFFFD
:103C500000400140004401400048014070B50400AC
:103C600002263C34257803003000012D17D01D00BA
:103C700001383D3520702E700C2A0CD81000FCF74E
:103C80004DFA070A0A0A0F0A0A0A130A0A0A170053
:103C90001868FFF763FE012300202B70207070BDB1
:103CA0001868FFF79BFFF6E71868FFF79BFEF2E73F
:103CB0001868FFF7DBFEEEE7F8B5060002233C3696
:103CC0000D00317804001800012925D027000121BA
:103CD0003D3731703B700C2A1AD81000FCF71EFAE1
:103CE000071818181D1818182F181818410029003F
:103CF0002068FFF733FE0822236899690A430421EC
:103D00009A619A698A439A619A6929690A439A6110
:103D1000012300203B703070F8BD29002068FFF7B8
:103D20005DFF80222368120199690A439A619A69AA
:103D300015490A409A612A6999691202E6E7290041
:103D40002068FFF74FFE08222368D9690A4304213F
:103D5000DA61DA698A43DA61DA6929690A43DA6180
:103D6000D6E729002068FFF781FE80222368120130
:103D7000D9690A43DA61DA6903490A40DA612A69D2
:103D8000D9691202EAE7C046FFFBFFFF10B5012424
:103D90008C408A40036AA3430362036A1A430262A7
:103DA00010BD000010B5040001220068FFF7EEFF0F
:103DB00023680B4A934208D00A4A934205D00A4A24
:103DC000934202D0094A934204D18022596C1202D4
:103DD0000A435A640122196800200A431A6010BD80
:103DE000002C0140004001400044014000480140D7
:103DF00010B5FFF7D7FF10BD10B504000C290ED881
:103E00000800FCF78BF9070C0C0C280C0C0C2C0C84
:103E10000C0C300002232268D0680343D3600122D7
:103E20002068FFF7B3FF2368114A934208D0114A74
:103E3000934205D0104A934202D0104A934204D1D3
:103E40008022596C12020A435A6401221968002028
:103E50000A431A6010BD22680423D068DDE7226897
:103E60000823D068D9E722681023D068D5E7C04678
:103E7000002C014000400140004401400048014046
:103E800030B504003C34227803000220012A17D008
:103E90001D001B683D3528705A686E3082435A6099
:103EA0005A6808684968024380205A609A688243C9
:103EB0009A609A6800200A439A6001232B70207050
:103EC00030BD000030B504003C34237802000220ED
:103ED000012B24D015003D352870114BC86812689D
:103EE0000340886803430F480340486803430E4873
:103EF0000340086803430D480340086903430C4826
:103F000003404869896903430A4803400A480B4350
:103F100003400B435364002001232B70207030BDFD
:103F2000FFFCFFFFFFFBFFFFFFF7FFFFFFEFFFFFC0
:103F3000FFDFFFFFFFBFFFFFFF7FFFFF03680649B3
:103F40001A686A300A401A609A682331FF318A433E
:103F50009A60202303707047DFFEFFFF70477047B1
:103F60007047406A0023020010B55A321380083AA5
:103F70001380FFF7F5FF10BD70B504000568C26936
:103F8000836800692968034360693F4E03433F48E3
:103F9000134301400B432B606B683D49206A0B4083
:103FA000E1680B436B60A369A9680343394801408A
:103FB0000B43AB6080231B02B54210D1032036496E
:103FC000096B01403548405C9A4213D0082858D804
:103FD000FCF7A4F8375742574B5757575000304912
:103FE0008D424CD19A422CD1FFF724FC63684000EB
:103FF0005B080BE0082821D8FCF786F8F62005209E
:10400000182020201B0063685808264BC0186168E0
:10401000FCF78EF883B200200F22190091430A00AA
:104020001B0721685B0F1343CB6070BDFFF734FBA8
:10403000DCE76368580880235B02E7E70120002380
:10404000EAE7FFF7F7FB61684B081818FCF770F810
:1040500080B2E8600020E8E76168134B4808C018A8
:10406000FCF766F880B2F060F4E7FFF715FB6168D3
:104070004B08F4E7802361681B024808EFE79A4287
:10408000DCD00120D1E7C04600380140F369FFFFD2
:10409000FFCFFFFFFFF4FFFF00100240B452000803
:1040A000004400400024F40000127A00436A30B556
:1040B000DA0706D50168284C4A682240846A224300
:1040C0004A609A0706D50168244C4A682240C46AAF
:1040D00022434A605A0706D50168214C4A682240AB
:1040E000046B22434A601A0706D501681D4C4A68D2
:1040F0002240446B22434A60DA0606D501681A4C16
:104100008A682240846B22438A609A0606D5016839
:10411000164C8A682240C46B22438A605A0610D526
:104120000168134D4A68046C2A4022434A60802289
:104130005203944205D14A680E4C2240446C2243FB
:104140004A601B0606D502680B4953680B40816C18
:104150000B43536030BDC046FFFFFDFFFFFFFEFF76
:10416000FFFFFBFFFF7FFFFFFFEFFFFFFFDFFFFF13
:10417000FFFFEFFFFFFF9FFFFFFFF7FF70B5041E7C
:1041800001D1012070BD050069352B78DBB2002B11
:1041900004D102006832137000F076FF242301215D
:1041A00022682B70136820008B431360FFF7E4FE36
:1041B0000128E6D0636A002B02D02000FFF776FFCB
:1041C00023680B495A6800200A4008215A609A68FF
:1041D0008A439A60012219680A431A602200202348
:1041E000E0666A3268342B7013702070CAE7C046EC
:1041F000FFF7FFFF030030B569331B780200022090
:10420000212B0FD114005234238811689BB2002B4C
:1042100009D10A687E3082430A604022086802435E
:104220000A60002030BD802095684001D36C854233
:104230000DD1106900280AD118880233C005C00DBD
:104240000885D3642388013B9BB22380E9E7581C8F
:10425000D0641B780B85F5E74021026810B5136820
:104260008B4313600300202269331A70FFF776FE38
:10427000002010BD020070B56A321178036822294F
:104280002DD1010080245C310D88998C6401294076
:104290008568436DA5421ED10469002C1BD119808D
:1042A00002334365010000245A310B88013B9BB265
:1042B0000B80A3420DD103680C4D19682940196089
:1042C00099682335FF35A943996020231370FFF7C0
:1042D00046FE200070BD5C1C44651970E2E70822B0
:1042E000996902240A439A61F3E7C046DFFEFFFFA3
:1042F0000F2270B504000068C36901681A4008D134
:1043000020252B4205D0294203D02000FFF7B2FF21
:1043100070BD8568002A60D00122154003D1902627
:104320007600314259D0134205D0CE0503D5026242
:10433000E66E3243E2660222134206D0002D04D01C
:104340000262E66E92183243E2660422134206D0FD
:10435000002D04D00262E66E023A3243E2661A078A
:1043600008D58A0601D4002D04D008220262E06E2E
:104370000243E266E26E002ACAD02022134204D031
:10438000114202D02000FFF775FFE36E20001B07EB
:1043900004D423689D6840231D401AD0FFF7CEFD4A
:1043A000402123689A680A420FD09A68606E8A4357
:1043B0009A60002809D0134B4363FEF7CFFD002815
:1043C000A6D0606E436B9847A2E72000FFF7C8FDB8
:1043D0009EE7FFF7C5FDE5669AE78022134205D008
:1043E000114203D02000FFF705FF91E7402213425E
:1043F00000D18DE7114200D18AE72000FFF72CFFA2
:1044000086E7C046633F000870B5050088B01422F7
:10441000002103A800F0C9FE214B2A689A423DD131
:10442000802680201F4BB6009A69800232439A6131
:104430009A6932400092009A5969014359610121F9
:104440005A6902400192019A5A6990200A435A61BE
:104450005B69C0050B400293029B7F2303A9039372
:104460007C3B0493FEF7E6FD0F4C104B20002360CD
:1044700000236360A3608033E36080231B016361DA
:104480002023A36180239B012661E361FEF730FDB9
:10449000002801D000F056FBEC63656208B070BDE7
:1044A0000024014000100240640000200800024087
:1044B0001FB50C22002101A800F077FE01221E4C3E
:1044C0001E4B22612262C222FF32A262802223603E
:1044D00008210023D20020006360A360E3606161D3
:1044E000A361E3616362E26223636363FEF790FAB0
:1044F000002801D000F026FB80235B01029380237B
:104500005B050393062301A920000193FEF7D2FB6C
:10451000002801D000F016FB002201210C20FEF73C
:1045200093FC0C20FEF7C0FC2000FEF739FC2000B5
:10453000FFF76AFF1FBDC046AC0000200024014009
:1045400070B5002803D0012800D17EE070BD5B4A21
:104550001378012B4DD15A4C5A4923680E68013308
:1045600023605949594DB34211D3594E3378002B2A
:1045700032D102203070574E0B707363564E337039
:10458000564EB363287000232360023313700B78F8
:10459000012B0ED1524B1888FCF754FB2368514A6B
:1045A0009B009958FCF772F8FBF7B0FF494B80B2BB
:1045B00058632B78012BC9D1494B1888FCF742FB73
:1045C0002368484A9B009958FCF760F8FBF79EFF68
:1045D000404B80B29863B9E7012BD4D13F4B307088
:1045E000586302233C4E0B7033703A4B287098632B
:1045F000C9E7022BAAD132490B6801330B60002BAB
:10460000A4D0334B1878022805D1C8243348A4001D
:104610004463012018702C4B1878022801D101380E
:1046200018702D4B1878022805D1C8242B48A400F7
:10463000846301201870254B1878022801D10138B5
:10464000187000230B60013319E0274A1378012BFF
:1046500021D126491B480B68006801330B60834257
:1046600000D273E71C480378002B0AD1022404709F
:10467000164803701748836300230B6002331370DE
:1046800064E7012BF8D100230370144883630220F0
:104690000E4B1870F0E7022B00D057E713490B6858
:1046A00001330B60002B00D150E70B4B1C78022C20
:1046B000C1D1C825094CAD00A563BBE7350000207A
:1046C0003C00002030000020340000209810002022
:1046D00024000020002C014038000020000400408D
:1046E00026000020F80000202A0000205C000020A6
:1046F000F8B5041CFEF716F8424A434B06000F00BB
:10470000FBF7A2FE00284ED0404A414B3000390052
:10471000FCF72EFBFEF758F8041C0021201CFBF7C9
:10472000CDFE00284ED0201CFDF7FCFF04000D003C
:10473000384A394BFDF760FA22002B00FDF75CFA8E
:10474000364A06000F00364B20002900FDF754FAC8
:1047500002000B0030003900FCF70AFBFEF734F8CA
:104760000021041CFBF7AAFE002847D080231B066B
:10477000E018211CFBF78AFF211CFCF7A7F8FDF7C6
:10478000D1FF284A284BFDF737FA0600201C0F00FE
:10479000FDF7C8FF02000B0030003900FCF7E8FA13
:1047A000FEF712F8F8BD174A204B30003900FBF72E
:1047B0005FFE0028B1D0154A154B30003900FDF7D7
:1047C0009BFCA7E7201CFDF7ADFF144A144B040027
:1047D0000D00FDF711FA0F4A06000F000E4B2000E6
:1047E0002900FDF709FA22002B00FDF705FA020067
:1047F0000B0030003900FDF77FFCAFE7211C201CC7
:10480000B8E7C046F1D4C853FB2109C068A174546D
:10481000FB211940592799622FF0D93FA662846C79
:10482000305FF43FCDCCCCCCCCCCCC3FFB2109408D
:1048300070B5FA2500240C4EAD00A0B2FCF752FA78
:10484000FDF770FF094A0A4BFDF7D6F9094B002224
:10485000FCF79EFDFDF7B8FFFFF74AFFA300013408
:10486000F050AC42E9D170BDF8000020F1D4C8533B
:10487000FB21094000408F4007B50120084A5169DB
:104880000143516153690022034001931100083034
:10489000019BFEF7D9FA0920FEF706FB07BDC046CB
:1048A0000010024000B589B01422002103A800F0D6
:1048B0007CFC8020114B80025969014359615A697F
:1048C000024080200092009A5969C0020143596158
:1048D00080215A69090302400192019A5A690848E5
:1048E0000A435A615B690B400293029BE02303A9D0
:1048F000DB010393FEF79EFB09B000BD00100240F0
:104900000004004810B5134B134C01222360134BD5
:10491000200063600023E260A36023616361A36100
:10492000E3612362FEF736FC002801D000F00AF9AB
:1049300000212000FEF784FC002801D000F002F9DD
:1049400000212000FEF7A2FC002801D000F0FAF8B8
:1049500010BDC046005400409C1000200E090020ED
:1049600010B5040088B01422002103A800F01DFC3B
:10497000134B22689A4220D18021124CC9026269ED
:1049800011480A436261636903220B400193019B52
:10499000C0239B000393122303A90493113B0593A7
:1049A00006920793FEF746FB8021E26989030A43DA
:1049B000E261E3690B400293029B08B010BDC04660
:1049C00000540040001002400004004830B510249C
:1049D00095B03022002108A800F0E7FB220000215A
:1049E000684600F0E2FB2200002104A800F0DDFB95
:1049F00012230893802301250C940E949B030E3CF4
:104A000008A80B950D9510941293FEF763FC0028EF
:104A100000D0FEE707230290039029006846009328
:104A20000194FEF76BFE002800D0FEE721230690DC
:104A3000079004A80493FEF70DFF002800D0FEE7BE
:104A400015B030BD3222214B10B51A80FA22204B0E
:104A500092001A6000231F4A13601F4A13601F4A06
:104A600013601F4A13701F4A13701F4A13701F4AA6
:104A700013701F4A13701F4A13701F4A01331370BB
:104A80001E4A13701E4A1370C8221E4B52001A8011
:104A9000FFF7CEFEFDF752FFFFF798FFFFF702FF8B
:104AA000FFF7EAFEFFF704FDFFF72CFF00F0C8F95F
:104AB00000F052FA00F0CCFA00F0C4F81248FEF709
:104AC0004DF8002800D0FEE7FEE7C0462C0000208D
:104AD000300000203C0000205C000020A8000020E6
:104AE000240000202800002038000020340000208E
:104AF0006000002098100020350000202A000020CF
:104B00002900002026000020AC000020094A0A4BA2
:104B100010881B6C40085B08C018C82380B29B003B
:104B200010B5064910805843FBF78CFB044B1880E6
:104B300010BDC0463600002000240140FE1F0000CA
:104B400026000020FEE7000001200A4B82B0996990
:104B50000143996180219A69490502400092009AB7
:104B6000DA690A43DA61DB690B400193019B02B009
:104B70007047C046001002407047FEE7704770471C
:104B800010B5FDF7EBFE10BD10B50248FEF709FAAF
:104B900010BDC0466400002010B50248FFF7A8FB16
:104BA00010BDC046A8110020022210B5084C236891
:104BB000196911420BD0D968114208D0053A1A611F
:104BC000012300202377FFF7BBFC0023237710BDD0
:104BD0002811002010B50248FDF7FCFF10BDC046AB
:104BE000AC0000200121114B11481A680A431A60D9
:104BF0005A6802405A601A680E4802401A601A68E1
:104C00000D4802401A605A680C4802400F205A6052
:104C1000DA6A8243DA621A6B094802401A635A6BF5
:104C20008A435A6300229A607047C04600100240CF
:104C30000CB8FF08FFFFF6FEFFFFFBFFFFFFC0FF02
:104C4000ECFEFFFF30B593B00822002102A800F06F
:104C5000ACFA1C22002104A800F0A7FA1C220021B3
:104C60000BA800F0A2FA2B4D2B4B00242B60FA234B
:104C700028009B006C60AC60EB602C616C61AC61E7
:104C8000FEF776FFA04201D0FFF75CFF802302A968
:104C9000280002940393FFF7F3F8002801D0FFF7F0
:104CA00051FF0024FA2322005B0004A92800049489
:104CB000059306940794089409940A94FEF7CEFF8E
:104CC000A04201D0FFF73EFF80230BA99B012800E3
:104CD0000B940C940D940E940F9410931194FFF771
:104CE000F1F8002801D0FFF72DFF80200B4A400289
:104CF0009169014391619369002103400193280068
:104D0000019BFFF775F8002801D0FFF71BFF13B0D8
:104D100030BDC046E81000200040014000100240B5
:104D200003680E4A82B093420BD180200C4A0001E6
:104D3000916901439161936903400093009B02B024
:104D40007047084A9342FAD10220054AD1690143CB
:104D5000D161D36903400193019BF0E7002C01402E
:104D60000010024000040040084B026882B09A42E2
:104D700009D18020064A40029169014391619369FB
:104D800003400193019B02B07047C04600400140C0
:104D90000010024010B5040088B01422002103A8BE
:104DA00000F003FA2368214A934216D18020204A5A
:104DB0008002516901435161536903A90340009383
:104DC000009BE023DB00039390200223C0050493A3
:104DD0000793FEF72FF908B010BD164A9342FAD197
:104DE0008020134BC002596902240143596180217C
:104DF0005A69090302400192019A5A690E480A430E
:104E00005A615B6904940B400293029B012303A93E
:104E100003930793FEF70EF9C02303930023049432
:104E200005930693079303A90448D2E7002C014099
:104E30000010024000040040000400480008004840
:104E400030B58BB00822002101A800F0AEF91C2279
:104E5000002103A800F0A9F93C4C3D4B002523603C
:104E6000C8239B00E360802320006560A560256166
:104E70006561A361FEF797FEA84201D0FFF762FECD
:104E800001A9200001950295FEF7FAFF002801D044
:104E9000FFF758FE0022602303A920000393049229
:104EA00005920692079208920992FEF705FF0028E4
:104EB00001D0FFF747FE042203A92000FEF7FCFE05
:104EC000002801D0FFF73EFE082203A92000FEF7CC
:104ED000F3FE002801D0FFF735FE0C2203A92000C5
:104EE000FEF7EAFE002801D0FFF72CFE2000FFF7B6
:104EF00051FF8020174A0001916901439161936934
:104F00000021034000932000009BFEF74BFF002888
:104F100001D0FFF717FE04212000FEF743FF002811
:104F200001D0FFF70FFE08212000FEF73BFF00280D
:104F300001D0FFF707FE0C212000FEF733FF002809
:104F400001D0FFF7FFFD0BB030BDC0466811002057
:104F5000002C01400010024030B58BB00822002127
:104F600001A800F022F91C22002103A800F01DF97D
:104F7000344C354B00252360C82320009B0065601E
:104F8000A560E3602561A561FEF70DFEA84201D092
:104F9000FFF7D8FD01A9200001950295FEF770FFEB
:104FA000002801D0FFF7CEFD0022602303A92000D6
:104FB0000393049205920792FEF77EFE002801D02B
:104FC000FFF7C0FD042203A92000FEF775FE0028AC
:104FD00001D0FFF7B7FD082203A92000FEF76CFE01
:104FE000002801D0FFF7AEFD2000FFF7D3FE02201E
:104FF000164AD1690143D161D3690021034000936E
:105000002000009BFEF7F8FE002801D0FFF79AFD74
:1050100004212000FEF7C6FE002801D0FFF792FD14
:1050200008212000FEF7BEFE002801D0FFF78AFD10
:10503000002210201100FDF707FF1020FDF734FFBC
:105040000BB030BD281100200004004000100240C9
:105050000B480C4B10B5036096231B0243600C22D7
:10506000002342618360C36003618361C3610362A3
:105070004362FFF783F8002801D0FFF763FD10BDFE
:10508000A81100200038014010B5040088B0142297
:10509000002103A800F089F8154B22689A4224D118
:1050A0008020144BC00199690143996180219A695C
:1050B000C90202400192019A5A690F480A435A6193
:1050C0005B690B400293029BC0230393BE3B049396
:1050D00003A901330693FDF7ADFF00221B20110049
:1050E000FDF7B2FE1B20FDF7DFFE08B010BDC04685
:1050F0000038014000100240000400480D48854679
:105100000D480E490E4A002302E0D458C45004331F
:10511000C4188C42F9D30B4A0B4C002301E01360F6
:105120000432A242FBD3FFF75DFD00F011F8FFF758
:1051300089FCFEE700200020000000200400002081
:10514000D85200080400002018120020FEE70000DA
:1051500070B500260C4D0D4C641BA410A64209D15D
:10516000002600F02BF80A4D0A4C641BA410A6423E
:1051700005D170BDB300EB5898470136EEE7B30098
:10518000EB5898470136F2E7D0520008D052000899
:10519000D0520008D4520008002310B59A4200D122
:1051A00010BDCC5CC4540133F8E70300821893426D
:1051B00000D1704719700133F9E70000F8B5C04617
:1051C000F8BC08BC9E467047F8B5C046F8BC08BCA1
:0451D0009E46704740
:1051D40002030405060708090A0B0C0D0E0F101034
:1051E4000102030405060708090A0B0C0D0E0F1033
:1051F400B8070008080700080807000806070008A1
:10520400AA070008AA070008A00700080607000864
:10521400AA070008A0070008AA0700080607000854
:10522400B0070008B0070008B007000840080008ED
:10523400881500086A15000824150008421400089F
:10524400241500085C150008241500084214000801
:105254006A1500086A1500085C1500084214000865
:105264003A1400083A1400083A140008A017000879
:10527400E81D0008A81C0008A81C0008A41C0008BD
:10528400C01D0008C01D0008B21D0008A41C0008B1
:10529400C01D0008B21D0008C01D0008A41C0008A1
:1052A400C81D0008C81D0008C81D0008CC1F000840
:1052B40000040802000000000000000001020304D2
:0C52C400060708090000000001020304B6
:0452D000E9000008E9
:0452D400C10000080D
:0452D80000127A0046
:04000005080050FDA2
:00000001FF
