:020000040800F2
:100000000020002019220008D11E0008D31E00087D
:1000100000000000000000000000000000000000E0
:10002000000000000000000000000000D51E0008D5
:100030000000000000000000D71E0008D91E0008C4
:1000400069220008000000006922000869220008F7
:100050006922000869220008692200086922000854
:1000600000000000E11E0008692200086922000863
:1000700069220008692200086922000800000000C7
:1000800069220008692200080000000069220008B7
:100090006922000869220008692200086922000814
:1000A000692200086922000869220008F11E000880
:1000B00069220008000000000000000000000000AD
:1000C00010B5064C2378002B07D1054B002B02D02E
:1000D000044800E000BF0123237010BD040000208D
:1000E00000000000D8220008044B10B5002B03D0FC
:1000F0000349044800E000BF10BDC04600000000F6
:1001000008000020D822000802B4714649084900BE
:10011000095649008E4402BC7047C04602B471467D
:1001200049084900095C49008E4402BC7047C0463A
:10013000002243088B4274D303098B425FD3030A26
:100140008B4244D3030B8B4228D3030C8B420DD339
:10015000FF22090212BA030C8B4202D312120902C7
:1001600065D0030B8B4219D300E0090AC30B8B4205
:1001700001D3CB03C01A5241830B8B4201D38B03B3
:10018000C01A5241430B8B4201D34B03C01A524158
:10019000030B8B4201D30B03C01A5241C30A8B429B
:1001A00001D3CB02C01A5241830A8B4201D38B0286
:1001B000C01A5241430A8B4201D34B02C01A52412A
:1001C000030A8B4201D30B02C01A5241CDD2C3099C
:1001D0008B4201D3CB01C01A524183098B4201D318
:1001E0008B01C01A524143098B4201D34B01C01A03
:1001F000524103098B4201D30B01C01A5241C3087B
:100200008B4201D3CB00C01A524183088B4201D3E9
:100210008B00C01A524143088B4201D34B00C01AD5
:100220005241411A00D20146524110467047FFE741
:1002300001B5002000F006F802BDC0460029F7D045
:1002400076E770477047C04610B5040000F038FEEE
:10025000FA218900FFF76CFF00F07CF901200022F1
:100260002100404200F03CF9002010BD1023064A56
:1002700010B5116800200B431360FFF7E5FF01F094
:100280000FFE002010BDC04600200240024A136845
:10029000013313607047C04620000020014B1868EE
:1002A0007047C04620000020F8B504000120002C53
:1002B00072D0636C002B06D122004032A364200070
:1002C000137001F03DFC636CDB0600D579E004227D
:1002D00023689868104000D073E0626C4249114076
:1002E00002220A43032162649A680A40012A00D06C
:1002F0006DE01968114202D1DA68120467D5DA6834
:100300003A49256A0A40DA60A2696F039103E269FB
:10031000D2031143626B013A561EB2411603E268E2
:10032000114322690F43022A00D10420226B616A23
:1003300052003A4332430243012904D1002D2CD10B
:10034000802149020A43C220A16AFF30814202D0C3
:10035000E06A01430A438020D96840051143D9600F
:10036000A16B814202D0481E062807D8072558698C
:100370002940A8435861586901435961DB681C4909
:100380000B409A4211D100200322A064636C934376
:100390001A00012313436364F8BD2020656C2843D1
:1003A0006064A06C0143A164CDE71222636C01205C
:1003B00093431A00102313436364A36C0343A364A1
:1003C000EAE71023626C012013436364E4E7182119
:1003D000DA688A43A1680A43DA60196962688900A9
:1003E0008908114319618AE7FDFEFFFF1902FEFF2C
:1003F000E7FF3F83F7B500230400019340342378DF
:1004000005000220012B2BD001232A68AE6B9068D7
:100410002370400752D42C484F680D6887423BD068
:10042000AB4018008023976A5B05384390629E4278
:100430000FD0013E062E0CD98B6807215069084069
:10044000834206D050690B40884350615069034392
:1004500053612B00103B012B03D900200023237094
:10046000FEBD1A4B80221968102D13D0D2030A4307
:100470001A60102DF1D1164B16491868FFF758FE77
:100480000A2358430190019B002BE6D0019B013BBE
:100490000193F8E71204EAE7AB40916A99432B0015
:1004A000103B9162012BD8D8084B1A68102D03D04D
:1004B00009490A401A60D0E70849FAE72022696C26
:1004C00018000A436A64C9E70110000008270140C8
:1004D0000000002040420F00FFFFBFFFFFFF7FFF33
:1004E00070B58901002814DA0F23C0B20340083B1D
:1004F000114A9B089B009B18032210409040FC323D
:100500001500114085408140DC69AC432143D9612D
:1005100070BD032583082840A840FC352E00074AFB
:100520009B009B18C02286402940814092009C5825
:10053000B44321439950EBE700ED00E000E100E017
:100540001F2318401E3B8340014A13607047C0467A
:1005500000E100E0094A431E012093420DD8C0216A
:10056000074A08485360036A09061B021B0A0B432B
:10057000036200200723906013607047FFFFFF00B5
:1005800010E000E000ED00E070B504000120002C58
:1005900028D002232068A51CEB770268124BA168C3
:1005A0001A4063680B43E1680B4321690B4361699F
:1005B0000B43A1690B43E1690B43134303600B4BEE
:1005C0001421C018FFF7B4FD094B80002064E363D9
:1005D00000200123A062E06220636063A063E4184E
:1005E000EB77E07770BDC0460FC0FFFFF8FFFDBF9F
:1005F0000000024070B5841CE37F022B04D004236A
:100600008363033B180070BD0E210368056C1A68F4
:100610008A431A6001221968914319601100A940A8
:10062000C36B5960E27700248318426BDC771300B8
:10063000A242E7D090472300E4E7F8B504273E0044
:10064000016CC26B8E40156803681C682E420DD089
:100650003C420BD01968890602D41968B943196065
:10066000C36A5660002B19D0984717E002273E0056
:100670008E402E4213D03C4211D01968890606D410
:100680000A241968A14319600121C319D97756605A
:100690000022431CDA77836A9342E5D1F8BD08262D
:1006A00037008F403D42F9D03442F7D00E251C6808
:1006B000AC431C6001231C008C405460821C83638B
:1006C000D3770022C318DA77036BE5E7F0B50B6840
:1006D00087B0029300230191029ADA4001D107B05A
:1006E000F0BD01229A4003920399029A0A400092B7
:1006F00000D18CE0019A1021526816008E43022E20
:100700000ED107251D40AD000139A940DC08A40029
:100710000419276A8F4301990969A9400F43276289
:1007200003245F00BC40E4430568013E2540AC461D
:1007300003251540BD4061460D430560012E0FD8CD
:1007400001998668CD682640BD403543856046687E
:10075000039915098E4301210D409D4035434560A5
:10076000C56801992C408D688021BD4049052C4306
:10077000C4600A424BD00121264C0326A5691E40C5
:100780000D43A561A4699D080C400594059C0F24A8
:100790002149AD00B6006D18B4409021AF68C9057D
:1007A000A743002488420CD01C490134884208D059
:1007B0001B490134884204D01A490334884200D1CD
:1007C000023CB44000993C430E00AC60164CCD4353
:1007D00027683E43D10301D43E002E40266067685F
:1007E000009E3E43910301D43E002E406660A76800
:1007F000009E3E43D10201D43E002E40A660E66832
:10080000009F3743920201D42E403700E760013346
:1008100062E7C046001002400000014000040048AA
:1008200000080048000C00480004014070B50400B6
:100830000120002C3FD0250041352B78DBB2002B66
:1008400005D1220040321370200001F031FA242338
:1008500001212B702368E0681A68A6688A431A6031
:1008600061681A4A0A401A619968194A11409960E8
:10087000012821D180210902314399605868154926
:1008800001435960D96800200A40DA606169226931
:100890000A43A16909020A43DA60216AE2690A434C
:1008A0001A60012219680A431A60202360642B70C1
:1008B00020634234207070BD842109023143996065
:1008C0000228DBD1802109015960D7E7FFFFFFF043
:1008D000FF7FFFFF00800002F0B504004134227862
:1008E0000300D2B20220202A18D11D0040352E78F4
:1008F000012E13D01B68223020701E6823388643D7
:100900001E601E68064F3E401E601E68314319601F
:10091000196808431860002022702870F0BDC04696
:10092000FFEFFFFFF0B5050041352A780300D2B292
:100930000220202A17D11C0040342678012E12D024
:100940001B68223028701E68233886431E601E688C
:10095000054F09023E403143196019680843186089
:1009600000202A702070F0BDFFF0FFFFF0B5036893
:1009700085B00500DB072FD42B689B0700D581E0ED
:100980002B681B0700D5BCE02B685B0700D5DFE0B8
:100990002B68DB061AD56A69B54C0423012A00D0FE
:1009A0004BE1616B02260B436363636B1A43626323
:1009B000FFF774FC0700636B334200D136E1F82186
:1009C000626BAB698A43DB0013436363296A0029C6
:1009D00000D059E1002013E00C21A54C62680A40C8
:1009E000042A06D063680B40082B0BD16368DB0335
:1009F00008D523689B03BFD56B68002BBCD10120B1
:100A000005B0F0BD6B68012B13D1802322685B0217
:100A100013432360FFF742FC80260700B6022368D9
:100A20003342A9D1FFF73AFCC01B6428F7D9032051
:100A3000E6E7002B16D123688E4A802613402360F8
:100A400023688D4AB60213402360FFF727FC070096
:100A50002368334200D18FE7FFF720FCC01B6428D6
:100A6000F6D9E4E7052B05D180232268DB02134386
:100A70002360CAE723687F4A1340236023687E4AC5
:100A80001340C6E70C227A4C6368134206D06368B1
:100A90001340082B10D16368DB030DD423689B0738
:100AA00002D5EB68012BAAD1F82122682B698A4371
:100AB000DB001343236063E7EA680123002A0FD0B9
:100AC0002268022613432360FFF7E8FB0700236830
:100AD0003342E9D1FFF7E2FBC01B0228F7D9A6E7B2
:100AE000226802269A432260FFF7D8FB070023689A
:100AF000334200D144E7FFF7D1FBC01B0228F6D9EF
:100B000095E7EA6901235A4C002A10D0626A02264E
:100B100013436362FFF7C2FB0700636A334200D0EE
:100B200032E7FFF7BBFBC01B0228F6D97FE7626AFA
:100B300002269A436262FFF7B1FB0700636A334201
:100B400000D121E7FFF7AAFBC01B0228F6D96EE708
:100B500080220021464C5205E3690091134208D1DE
:100B6000E3691343E361E36913400393039B0123A8
:100B700000938027414E7F0033683B4206D0AB682C
:100B8000012B13D1226A1343236230E033683B43C5
:100B90003360FFF783FB019033683B42EFD1FFF7EF
:100BA0007DFB019BC01A6428F6D940E70122002B87
:100BB00014D1236A022793432362236A03329343A7
:100BC0002362FFF76BFB0600236A3B4225D0FFF749
:100BD00065FB2B4B801B9842F6D928E7052B0BD1E0
:100BE000216A013B0B432362236A1A432262FFF707
:100BF00055FB022706000DE0236A9343042223627B
:100C0000236A9343C0E7FFF749FB1D4B801B9842C3
:100C100000D90CE7236A3B42F5D0009B012B00D0A2
:100C2000B6E6E369174A1340E361B1E6FFF736FB26
:100C3000C01B022800D8BEE6F9E6053203D1626B7C
:100C40009A436263BBE6626B02261343012263632D
:100C5000636B93436363FFF721FB0700636B3342CE
:100C600000D1B3E6FFF71AFBC01B0228F6D9DEE677
:100C700000100240FFFFFEFFFFFFFBFF007000407F
:100C800088130000FFFFFFEF0C22264C0120636851
:100C90001340082B00D1B3E62368234A1340236096
:100CA00002292FD1FFF7FAFA80260700B60423683D
:100CB000334221D10F22E36A9343EA6A1343E3628A
:100CC000696AAB6A62680B43184980250A4013437E
:100CD0006360802322685B0413432360FFF7DEFA1E
:100CE0000600AD0423682B4200D073E6FFF7D6FA66
:100CF000801B0228F6D99AE6FFF7D0FAC01B02281B
:100D0000D5D994E6FFF7CAFA80250600AD0423681A
:100D10002B4200D15EE6FFF7C1FA801B0228F6D90C
:100D200085E6C04600100240FFFFFFFEFFFFC2FF46
:100D300070B5144C88B010222100684601F0BAFA50
:100D4000210004AD10221031280001F0B3FA0C226A
:100D50000D4E73681A40082A11D10F206A46990C6B
:100D60000140545CF26A0240A95CDB0305D50748E8
:100D7000FFF7DEF9604308B070BD0548FAE70348A5
:100D8000F9E7C046F02200080010024000127A0085
:100D900000093D00F7B50122434C060023680F000F
:100DA00013408B421CD33268930723D4D30729D432
:100DB000012322681A40974267D333683B4C5B0794
:100DC0006AD4FFF7B5FF6368394A1B061B0FD35C73
:100DD000D840384B18600020FFF736FA002008E0B2
:100DE000236893430B432360236813409942DAD06E
:100DF0000120FEBDF0202D494B688343B0680343BA
:100E00004B60D3E7294D72682B68012A1AD19B03E6
:100E1000EED503216B688B4313436B60FFF73EFAFB
:100E200073680190012B15D10C226B681340042BC1
:100E3000BED0FFF733FA019BC01A1F4B9842F3D97B
:100E40000320D6E7022A02D19B01E2D4D0E79B0718
:100E5000DFD4CDE7022B12D00C226B681342A7D04F
:100E6000FFF71CFA019BC01A134B9842F4D9E7E72D
:100E7000FFF714FA019BC01A0F4B9842E0D80C22DE
:100E80006B681340082BF3D192E722689A432260E3
:100E900022681A42ACD190E76368084A1340F268AE
:100EA000134363608DE7C0460020024000100240FB
:100EB000142300080000002088130000FFF8FFFF43
:100EC000014B18687047C04600000020044B054ADB
:100ED0005B685B055B0FD35C034A1068D8407047C2
:100EE000001002402423000800000020F0B5036831
:100EF00085B00500DB0328D580220021374C520540
:100F0000E3690091134208D1E3691343E361E369A4
:100F100013400393039B012300938027304E7F00EF
:100F200033683B4226D0C022236A920013402D4EE4
:100F300032D1236A1E406B681E43009B2662012B40
:100F400003D1E369284A1340E3612A68D30706D531
:100F5000032022490B6B8343A86803430B630020E3
:100F6000930617D510211D4A136B8B43E9680B4379
:100F700013630FE033683B433360FFF78FF9019051
:100F800033683B42CFD1FFF789F9019BC01A64282F
:100F9000F6D9032005B0F0BD69680A409342C8D075
:100FA0008023226A206A11005B0203432362236AC2
:100FB0000E483140034023622162D307B9D5FFF7C1
:100FC0006DF907000222236A1342B2D1FFF766F9D6
:100FD000074BC01B9842F5D9DBE7C0460010024022
:100FE00000700040FFFCFFFFFFFFFFEFFFFFFEFF71
:100FF00088130000F8B504000120002C4BD000231A
:101000002500A3625D352B78DBB2002B05D12200D1
:101010005C321370200000F0FDFE022340222168A4
:101020002B700B68002093430B60E023E268DB0029
:101030009A4231D9F0263601B24233D10600206BF4
:10104000002803D19A422FD902232363A76863683B
:10105000A0693B4327693B4367693B43E7693B43DF
:10106000276A3B43A76A3B438027BF0007403B43B7
:101070000B60636A000C1A43636B1A430423184025
:10108000104306434E60CB69084A00201340CB61F1
:10109000012320662B70F8BD802676019A42CED0BF
:1010A000A062CCE70600FBE70123CEE7FFF7FFFFD6
:1010B0000122036A70B593430362036A4468856939
:1010C000723295430A681543022293438A68134398
:1010D000144A904208D0144EB04205D0134EB0428C
:1010E00002D0134EB04216D10826B343CE68334324
:1010F0000426B343904208D00B4A904205D00B4AD5
:10110000904202D00A4A904205D10A4A8E69224092
:101110004C69344314434A68446085614263036206
:1011200070BDC046002C0140004001400044014019
:1011300000480140FFFCFFFF70B57325036A174AA2
:1011400013400362036A4268C469AC430D682C43D0
:10115000134D2B408D682D022B43124DA8420ED10A
:10116000114D1D40CB681B022B43104D2B40104DE1
:101170004E6915408A69324312012A4308E00D4D39
:10118000A842F4D00C4DA842F1D00C4DA842EED0AC
:1011900042604A68C461C263036270BDFFFEFFFF24
:1011A000FFFDFFFF002C0140FFF7FFFFFFFBFFFFEC
:1011B000FFCFFFFF004001400044014000480140D4
:1011C000036A144A30B513400362026A124C436842
:1011D000C56925400C6824022543104C22408C68C8
:1011E000240322430E4CA04208D00E4CA04205D04E
:1011F0000D4CA04202D00D4CA04204D10C4C234017
:101200004C69A401234343604B68C56103640262D7
:1012100030BDC046FFEFFFFFFF8CFFFFFFDFFFFF8A
:10122000002C0140004001400044014000480140C2
:10123000FFBFFFFF1C4A10B50368904202D01B4C51
:10124000A04208D17024A3434C68234390420ED09F
:10125000164CA0420BD0164CA04208D0154CA04210
:1012600005D0154CA04202D0144CA04203D1144C1E
:101270002340CC6823438024A3434C692343036069
:101280008B68C3620B688362904208D0094B984216
:1012900005D0094B984202D0084B984201D10B6906
:1012A00003630123436110BD002C01400004004092
:1012B000002000400040014000440140004801403F
:1012C000FFFCFFFF70B504000120002C14D02500A6
:1012D0003D352B78DBB2002B05D122003C32137058
:1012E000200000F08DFE022320682B70211DFFF7E7
:1012F000A1FF012300202B7070BD70B504000120F8
:10130000002C14D025003D352B78DBB2002B05D105
:1013100022003C321370200000F05CFE02232068A3
:101320002B70211DFFF786FF012300202B7070BD5D
:101330001022036A70B593430362026A164D436834
:1013400084692C400D682D022C432025AA438D680A
:101350002D012A43114DA8420FD18025AA43150023
:10136000CA6812012A434025AA430D4D4E691D400B
:101370008B6933439B002B4308E00A4DA842F4D00D
:10138000094DA842F1D0094DA842EED043604B6808
:1013900084618363026270BDFF8CFFFF002C0140FB
:1013A000FFF3FFFF004001400044014000480140BE
:1013B00070B5040002263C34257803003000012D6E
:1013C00017D01D0001383D3520702E700C2A0CD826
:1013D0001000FEF7A3FE070A0A0A0F0A0A0A130AF8
:1013E0000A0A17001868FFF763FE012300202B701C
:1013F000207070BD1868FFF79BFFF6E71868FFF7CD
:101400009BFEF2E71868FFF7DBFEEEE7F8B5060093
:1014100002233C360D00317804001800012925D044
:10142000270001213D3731703B700C2A1AD810007B
:10143000FEF774FE071818181D1818182F1818181A
:10144000410029002068FFF733FE082223689969CC
:101450000A4304219A619A698A439A619A692969BF
:101460000A439A61012300203B703070F8BD2900C7
:101470002068FFF75DFF80222368120199690A4303
:101480009A619A6915490A409A612A699969120212
:10149000E6E729002068FFF74FFE08222368D96994
:1014A0000A430421DA61DA698A43DA61DA6929696F
:1014B0000A43DA61D6E729002068FFF781FE80221F
:1014C00023681201D9690A43DA61DA6903490A40DB
:1014D000DA612A69D9691202EAE7C046FFFBFFFF19
:1014E00010B501248C408A40036AA3430362036A57
:1014F0001A43026210BD000010B50400012200680A
:10150000FFF7EEFF23680B4A934208D00A4A934242
:1015100005D00A4A934202D0094A934204D180225C
:10152000596C12020A435A640122196800200A43C6
:101530001A6010BD002C01400040014000440140F1
:101540000048014030B504003C34227803000220FA
:10155000012A17D01D001B683D3528705A686E306F
:1015600082435A605A6808684968024380205A607A
:101570009A6882439A609A6800200A439A6001231D
:101580002B70207030BD0000036806491A686A306D
:101590000A401A609A682331FF318A439A602023F7
:1015A00003707047DFFEFFFF704770477047406A67
:1015B0000023020010B55A321380083A1380FFF757
:1015C000F5FF10BD70B504000568C2698368006945
:1015D0002968034360693F4E03433F48134301407A
:1015E0000B432B606B683D49206A0B40E1680B435D
:1015F0006B60A369A9680343394801400B43AB60A2
:1016000080231B02B54210D103203649096B0140EB
:101610003548405C9A4213D0082858D8FEF77EFD22
:10162000375742574B575757500030498D424CD18E
:101630009A422CD1FFF74AFC636840005B080BE03C
:10164000082821D8FEF760FDF6200520182020206C
:101650001B0063685808264BC0186168FEF768FDD8
:1016600083B200200F22190091430A001B07216852
:101670005B0F1343CB6070BDFFF75AFBDCE7636879
:10168000580880235B02E7E701200023EAE7FFF721
:101690001DFC61684B081818FEF74AFD80B2E8602F
:1016A0000020E8E76168134B4808C018FEF740FDCA
:1016B00080B2F060F4E7FFF73BFB61684B08F4E7AA
:1016C000802361681B024808EFE79A42DCD00120C2
:1016D000D1E7C04600380140F369FFFFFFCFFFFFAD
:1016E000FFF4FFFF001002401023000800440040F8
:1016F0000024F40000127A00436A30B5DA0706D5F8
:101700000168284C4A682240846A22434A609A074A
:1017100006D50168244C4A682240C46A22434A60C4
:101720005A0706D50168214C4A682240046B2243BF
:101730004A601A0706D501681D4C4A682240446B6E
:1017400022434A60DA0606D501681A4C8A682240AC
:10175000846B22438A609A0606D50168164C8A6813
:101760002240C46B22438A605A0610D50168134D8B
:101770004A68046C2A4022434A6080225203944201
:1017800005D14A680E4C2240446C22434A601B0635
:1017900006D502680B4953680B40816C0B435360BC
:1017A00030BDC046FFFFFDFFFFFFFEFFFFFFFBFF59
:1017B000FF7FFFFFFFEFFFFFFFDFFFFFFFFFEFFFF9
:1017C000FFFF9FFFFFFFF7FF70B5041E01D101204F
:1017D00070BD050069352B78DBB2002B04D1020007
:1017E0006832137000F0DEFC2423012122682B7084
:1017F000136820008B431360FFF7E4FE0128E6D056
:10180000636A002B02D02000FFF776FF23680B49A4
:101810005A6800200A4008215A609A688A439A60F0
:10182000012219680A431A6022002023E0666A3206
:1018300068342B7013702070CAE7C046FFF7FFFFB3
:10184000030030B569331B7802000220212B0FD131
:1018500014005234238811689BB2002B09D10A6806
:101860007E3082430A604022086802430A600020FA
:1018700030BD802095684001D36C85420DD1106940
:1018800000280AD118880233C005C00D0885D3642A
:101890002388013B9BB22380E9E7581CD0641B7866
:1018A0000B85F5E74021026810B513688B43136080
:1018B0000300202269331A70FFF776FE002010BD66
:1018C000020070B56A321178036822292DD1010017
:1018D00080245C310D88998C640129408568436DB2
:1018E000A5421ED10469002C1BD119800233436527
:1018F000010000245A310B88013B9BB20B80A342AC
:101900000DD103680C4D1968294019609968233579
:10191000FF35A943996020231370FFF746FE20008E
:1019200070BD5C1C44651970E2E7082299690224C5
:101930000A439A61F3E7C046DFFEFFFF0F2270B54E
:1019400004000068C36901681A4008D120252B42B1
:1019500005D0294203D02000FFF7B2FF70BD856893
:10196000002A60D00122154003D190267600314232
:1019700059D0134205D0CE0503D50262E66E32433C
:10198000E2660222134206D0002D04D00262E66E07
:1019900092183243E2660422134206D0002D04D08E
:1019A0000262E66E023A3243E2661A0708D58A06F8
:1019B00001D4002D04D008220262E06E0243E266E8
:1019C000E26E002ACAD02022134204D0114202D073
:1019D0002000FFF775FFE36E20001B0704D4236887
:1019E0009D6840231D401AD0FFF7CEFD402123689B
:1019F0009A680A420FD09A68606E8A439A600028FB
:101A000009D0134B4363FEF7F5FD0028A6D0606EA6
:101A1000436B9847A2E72000FFF7C8FD9EE7FFF75A
:101A2000C5FDE5669AE78022134205D0114203D036
:101A30002000FFF705FF91E74022134200D18DE718
:101A4000114200D18AE72000FFF72CFF86E7C0464D
:101A5000AF15000830B585B00C22002101A800F0B8
:101A600032FC0422344C354B6261BC32A2628022CB
:101A7000002523600123D20020006560A560E56099
:101A80002361A561E56123626562E26225636363A8
:101A9000FEF70AFCA84201D000F092F980235B0116
:101AA0000293802301A95B05200001950393FEF7B3
:101AB000A1FC002801D000F083F9012301A9200036
:101AC0000193FEF797FC002801D000F079F902237A
:101AD00001A920000193FEF78DFC002801D000F041
:101AE0006FF9032301A920000193FEF783FC00286E
:101AF00001D000F065F9042301A920000193FEF74D
:101B000079FC002801D000F05BF9052301A9200031
:101B10000193FEF76FFC002801D000F051F9062375
:101B200001A920000193FEF765FC002801D000F018
:101B300047F905B030BDC0466800002000240140D0
:101B400030B5050089B01422002103A800F0BBFBCA
:101B50001D4B2A689A4235D180201C4B8000996920
:101B60000143996180219A69890202400192019A98
:101B70005A6990200A435A615B69C0050B40029381
:101B8000029B7F2303A903937C3B0493FEF79EFDF6
:101B90000F4C104B802223600023E2609218636098
:101BA000A3602261A36180228023D2009B012000D8
:101BB0006261E361FEF7E8FC002801D000F000F963
:101BC000EC63656209B030BD0024014000100240A2
:101BD000240000200800024007B50120084A51698E
:101BE0000143516153690022034001931100083001
:101BF000019BFEF775FC0920FEF7A2FC07BDC0465D
:101C00000010024000B589B01422002103A800F0A2
:101C10005AFB80200D4B8002596901435961802194
:101C20005A69C90202400192019A5A6908480A4356
:101C30005A615B690B400293029BE02303A9DB011D
:101C40000393FEF743FD09B000BDC04600100240FB
:101C50000004004810B5134B134C01222360134BB2
:101C6000200063600023E260A36023616361A361DD
:101C7000E3612362FEF7DAFD002801D000F0A0F84E
:101C800000212000FEF728FE002801D000F098F87F
:101C900000212000FEF746FE002801D000F090F859
:101CA00010BDC04600540040B40000200E090020C2
:101CB00010B5040088B01422002103A800F003FB33
:101CC000134B22689A4220D18021124CC9026269CA
:101CD00011480A436261636903220B400193019B2F
:101CE000C0239B000393122303A90493113B059384
:101CF00006920793FEF7EAFC8021E26989030A4312
:101D0000E261E3690B400293029B08B010BDC0463C
:101D100000540040001002400004004830B5102478
:101D200095B03022002108A800F0CDFA2200002151
:101D3000684600F0C8FA2200002104A800F0C3FAA7
:101D400012230893802301250C940E949B030E3CD0
:101D500008A80B950D9510941293FEF707FE002826
:101D600000D0FEE707230290039029006846009305
:101D70000194FFF70FF8002800D0FEE7212306901A
:101D8000079004A80493FFF7B1F8002800D0FEE7FD
:101D900015B030BD10B5FEF769FAFFF7BFFFFFF7CA
:101DA00031FFFFF719FFFFF755FEFFF753FF00F074
:101DB00009F800F061F900F0D3F800F0D7F9FEE778
:101DC000FEE700001148124B10B503608223C022C9
:101DD0005B00436000239200C260013AFF3A8261D7
:101DE000F13AFF3A836003614361C2610362436277
:101DF0008362093A03630833C2624363FFF7FAF868
:101E0000002801D0FFF7DCFF10BDC0460001002014
:101E10000030014030B5040089B01422002103A82D
:101E200000F051FA1B4B22689A4231D180201A4BA4
:101E3000400199690225014399619A69032402408E
:101E400080200092009A59698002014359618021E3
:101E50005A69C90202400192019A5A6990200A43C4
:101E60005A615B69C0050B400293029B802303A962
:101E7000039304950694FEF729FC1823039300238B
:101E800003A906480495059306940793FEF71EFCE4
:101E900009B030BD0030014000100240000400488D
:101EA00001200A4B82B099690143996180219A69A6
:101EB000490502400092009ADA690A43DA61DB6957
:101EC0000B400193019B02B07047C04600100240D6
:101ED0007047FEE77047704710B5FEF7D7F910BDA1
:101EE00010B50248FEF7A9FB10BDC0462400002033
:101EF00010B50248FFF722FD10BDC046E4010020E6
:101F00000121114B11481A680A431A605A680240AD
:101F10005A601A680E4802401A601A680D4802405A
:101F20001A605A680C4802400F205A60DA6A8243ED
:101F3000DA621A6B094802401A635A6B8A435A6381
:101F400000229A607047C046001002400CB8FF089B
:101F5000FFFFF6FEFFFFFBFFFFFFC0FFECFEFFFFF2
:101F600030B500258BB00822002101A800F0ABF9A4
:101F70001C22002103A800F0A6F9144C144B2000E9
:101F800023606560A560E5602561A561FFF79AF9AA
:101F9000A84201D0FFF714FF01A920000195029586
:101FA000FFF7D0FA002801D0FFF70AFF002203A9AB
:101FB00020000392049205920792FFF7F9F9002896
:101FC00001D0FFF7FDFE0BB030BDC046640100201C
:101FD00000040040084B026882B09A4209D1802078
:101FE000064A00019169014391619369034001939D
:101FF000019B02B07047C046002C01400010024017
:10200000074B026882B09A4208D10220054AD16982
:102010000143D161D36903400193019B02B0704732
:10202000000400400010024010B5040086B01422E5
:10203000002101A800F047F90D4B22689A4214D103
:1020400080200C4A8002516901435161536901A902
:1020500003400093009BE0239020DB0001930223C8
:10206000C00502930593FEF731FB06B010BDC046D4
:10207000002C01400010024030B58BB00822002136
:1020800001A800F020F91C22002103A800F01BF990
:102090008020334A00019169324C01439161936978
:1020A000002503400093009B2F4B20002360C82392
:1020B0009B00E36080236560A56025616561A36185
:1020C000FFF71BF9A84201D0FFF77AFE01A9200013
:1020D00001950295FFF736FA002801D0FFF770FE50
:1020E00060230022039303A9683320000493059220
:1020F00007920892FFF78AF9002801D0FFF760FEE7
:10210000042203A92000FFF781F9002801D0FFF77E
:1021100057FE082203A92000FFF778F9002801D014
:10212000FFF74EFE2000FFF77FFF00212000FFF7A2
:10213000E3F9002801D0FFF743FE04212000FFF758
:10214000DBF9002801D0FFF73BFE08212000FFF754
:10215000D3F9002801D0FFF733FE0BB030BDC046E5
:1021600000100240A4010020002C01400B480C4B41
:1021700010B5036096231B0243600C2200234261CA
:102180008360C36003618361C36103624362FFF7DD
:102190001BFB002801D0FFF713FE10BDE401002057
:1021A0000038014010B5040088B01422002103A8B3
:1021B00000F089F8154B22689A4224D18020144BF4
:1021C000C00199690143996180219A69C90202405D
:1021D0000192019A5A690F480A435A615B690B40A0
:1021E0000293029BC0230393BE3B049303A90133D4
:1021F0000693FEF76BFA00221B201100FEF770F920
:102200001B20FEF79DF908B010BDC0460038014004
:1022100000100240000400480D4885460D480E4954
:102220000E4A002302E0D458C4500433C4188C4230
:10223000F9D30B4A0B4C002301E013600432A24295
:10224000FBD3FFF75DFE00F011F8FFF7A3FDFEE7FB
:10225000002000200000002004000020342300089B
:102260000400002054020020FEE7000070B50026A4
:102270000C4D0D4C641BA410A64209D1002600F0A1
:102280002BF80A4D0A4C641BA410A64205D170BD60
:10229000B300EB5898470136EEE7B300EB58984788
:1022A0000136F2E72C2300082C2300082C23000819
:1022B00030230008002310B59A4200D110BDCC5C39
:1022C000C4540133F8E703008218934200D17047E9
:1022D00019700133F9E70000F8B5C046F8BC08BC36
:1022E0009E467047F8B5C046F8BC08BC9E4670478D
:1022F00002030405060708090A0B0C0D0E0F101047
:102300000102030405060708090A0B0C0D0E0F1045
:1023100000040802000000000000000001020304A5
:0C23200006070809000000000102030489
:04232C00E9000008BC
:04233000C1000008E0
:0423340000127A0019
:0400000508002219B4
:00000001FF
