:020000040800F2
:10000000002000201D250008FD1F0008FF1F00081C
:1000100000000000000000000000000000000000E0
:1000200000000000000000000000000001200008A7
:100030000000000000000000032000080520000868
:100040006D250008000000006D2500086D250008E2
:100050006D2500086D2500086D2500086D25000838
:10006000000000000D2000086D2500086D25000827
:100070006D2500086D2500086D25000800000000B2
:100080002D2000086D250008000000006D250008E7
:100090006D2500086D2500086D2500086D250008F8
:1000A0006D2500086D2500086D2500081D2000083D
:1000B0006D250008000000000000000000000000A6
:1000C00010B5064C2378002B07D1054B002B02D02E
:1000D000044800E000BF0123237010BD040000208D
:1000E00000000000DC250008044B10B5002B03D0F5
:1000F0000349044800E000BF10BDC04600000000F6
:1001000008000020DC25000802B4714649084900B7
:10011000095649008E4402BC7047C04602B471467D
:1001200049084900095C49008E4402BC7047C0463A
:10013000002243088B4274D303098B425FD3030A26
:100140008B4244D3030B8B4228D3030C8B420DD339
:10015000FF22090212BA030C8B4202D312120902C7
:1001600065D0030B8B4219D300E0090AC30B8B4205
:1001700001D3CB03C01A5241830B8B4201D38B03B3
:10018000C01A5241430B8B4201D34B03C01A524158
:10019000030B8B4201D30B03C01A5241C30A8B429B
:1001A00001D3CB02C01A5241830A8B4201D38B0286
:1001B000C01A5241430A8B4201D34B02C01A52412A
:1001C000030A8B4201D30B02C01A5241CDD2C3099C
:1001D0008B4201D3CB01C01A524183098B4201D318
:1001E0008B01C01A524143098B4201D34B01C01A03
:1001F000524103098B4201D30B01C01A5241C3087B
:100200008B4201D3CB00C01A524183088B4201D3E9
:100210008B00C01A524143088B4201D34B00C01AD5
:100220005241411A00D20146524110467047FFE741
:1002300001B5002000F006F802BDC0460029F7D045
:1002400076E770477047C04610B5040000F038FEEE
:10025000FA218900FFF76CFF00F07CF901200022F1
:100260002100404200F03CF9002010BD1023064A56
:1002700010B5116800200B431360FFF7E5FF01F094
:10028000A5FE002010BDC04600200240024A1368AF
:10029000013313607047C04620000020014B1868EE
:1002A0007047C04620000020F8B504000120002C53
:1002B00072D0636C002B06D122004032A364200070
:1002C000137001F05FFC636CDB0600D579E004225B
:1002D00023689868104000D073E0626C4249114076
:1002E00002220A43032162649A680A40012A00D06C
:1002F0006DE01968114202D1DA68120467D5DA6834
:100300003A49256A0A40DA60A2696F039103E269FB
:10031000D2031143626B013A561EB2411603E268E2
:10032000114322690F43022A00D10420226B616A23
:1003300052003A4332430243012904D1002D2CD10B
:10034000802149020A43C220A16AFF30814202D0C3
:10035000E06A01430A438020D96840051143D9600F
:10036000A16B814202D0481E062807D8072558698C
:100370002940A8435861586901435961DB681C4909
:100380000B409A4211D100200322A064636C934376
:100390001A00012313436364F8BD2020656C2843D1
:1003A0006064A06C0143A164CDE71222636C01205C
:1003B00093431A00102313436364A36C0343A364A1
:1003C000EAE71023626C012013436364E4E7182119
:1003D000DA688A43A1680A43DA60196962688900A9
:1003E0008908114319618AE7FDFEFFFF1902FEFF2C
:1003F000E7FF3F83F7B500230400019340342378DF
:1004000005000220012B2BD001232A68AE6B9068D7
:100410002370400752D42C484F680D6887423BD068
:10042000AB4018008023976A5B05384390629E4278
:100430000FD0013E062E0CD98B6807215069084069
:10044000834206D050690B40884350615069034392
:1004500053612B00103B012B03D900200023237094
:10046000FEBD1A4B80221968102D13D0D2030A4307
:100470001A60102DF1D1164B16491868FFF758FE77
:100480000A2358430190019B002BE6D0019B013BBE
:100490000193F8E71204EAE7AB40916A99432B0015
:1004A000103B9162012BD8D8084B1A68102D03D04D
:1004B00009490A401A60D0E70849FAE72022696C26
:1004C00018000A436A64C9E70110000008270140C8
:1004D0000000002040420F00FFFFBFFFFFFF7FFF33
:1004E00070B58901002814DA0F23C0B20340083B1D
:1004F000114A9B089B009B18032210409040FC323D
:100500001500114085408140DC69AC432143D9612D
:1005100070BD032583082840A840FC352E00074AFB
:100520009B009B18C02286402940814092009C5825
:10053000B44321439950EBE700ED00E000E100E017
:100540001F2318401E3B8340014A13607047C0467A
:1005500000E100E0094A431E012093420DD8C0216A
:10056000074A08485360036A09061B021B0A0B432B
:10057000036200200723906013607047FFFFFF00B5
:1005800010E000E000ED00E070B504000120002C58
:1005900028D002232068A51CEB770268124BA168C3
:1005A0001A4063680B43E1680B4321690B4361699F
:1005B0000B43A1690B43E1690B43134303600B4BEE
:1005C0001421C018FFF7B4FD094B80002064E363D9
:1005D00000200123A062E06220636063A063E4184E
:1005E000EB77E07770BDC0460FC0FFFFF8FFFDBF9F
:1005F0000000024070B5841CE37F022B04D004236A
:100600008363033B180070BD0E210368056C1A68F4
:100610008A431A6001221968914319601100A940A8
:10062000C36B5960E27700248318426BDC771300B8
:10063000A242E7D090472300E4E7F8B504273E0044
:10064000016CC26B8E40156803681C682E420DD089
:100650003C420BD01968890602D41968B943196065
:10066000C36A5660002B19D0984717E002273E0056
:100670008E402E4213D03C4211D01968890606D410
:100680000A241968A14319600121C319D97756605A
:100690000022431CDA77836A9342E5D1F8BD08262D
:1006A00037008F403D42F9D03442F7D00E251C6808
:1006B000AC431C6001231C008C405460821C83638B
:1006C000D3770022C318DA77036BE5E7F0B50B6840
:1006D00087B0029300230191029ADA4001D107B05A
:1006E000F0BD01229A4003920399029A0A400092B7
:1006F00000D18CE0019A1021526816008E43022E20
:100700000ED107251D40AD000139A940DC08A40029
:100710000419276A8F4301990969A9400F43276289
:1007200003245F00BC40E4430568013E2540AC461D
:1007300003251540BD4061460D430560012E0FD8CD
:1007400001998668CD682640BD403543856046687E
:10075000039915098E4301210D409D4035434560A5
:10076000C56801992C408D688021BD4049052C4306
:10077000C4600A424BD00121264C0326A5691E40C5
:100780000D43A561A4699D080C400594059C0F24A8
:100790002149AD00B6006D18B4409021AF68C9057D
:1007A000A743002488420CD01C490134884208D059
:1007B0001B490134884204D01A490334884200D1CD
:1007C000023CB44000993C430E00AC60164CCD4353
:1007D00027683E43D10301D43E002E40266067685F
:1007E000009E3E43910301D43E002E406660A76800
:1007F000009E3E43D10201D43E002E40A660E66832
:10080000009F3743920201D42E403700E760013346
:1008100062E7C046001002400000014000040048AA
:1008200000080048000C00480004014070B50400B6
:100830000120002C3FD0250041352B78DBB2002B66
:1008400005D1220040321370200001F0F7FA242372
:1008500001212B702368E0681A68A6688A431A6031
:1008600061681A4A0A401A619968194A11409960E8
:10087000012821D180210902314399605868154926
:1008800001435960D96800200A40DA606169226931
:100890000A43A16909020A43DA60216AE2690A434C
:1008A0001A60012219680A431A60202360642B70C1
:1008B00020634234207070BD842109023143996065
:1008C0000228DBD1802109015960D7E7FFFFFFF043
:1008D000FF7FFFFF00800002F0B504004134227862
:1008E0000300D2B20220202A18D11D0040352E78F4
:1008F000012E13D01B68223020701E6823388643D7
:100900001E601E68064F3E401E601E68314319601F
:10091000196808431860002022702870F0BDC04696
:10092000FFEFFFFFF0B5050041352A780300D2B292
:100930000220202A17D11C0040342678012E12D024
:100940001B68223028701E68233886431E601E688C
:10095000054F09023E403143196019680843186089
:1009600000202A702070F0BDFFF0FFFFF0B5036893
:1009700085B00500DB072FD42B689B0700D581E0ED
:100980002B681B0700D5BCE02B685B0700D5DFE0B8
:100990002B68DB061AD56A69B54C0423012A00D0FE
:1009A0004BE1616B02260B436363636B1A43626323
:1009B000FFF774FC0700636B334200D136E1F82186
:1009C000626BAB698A43DB0013436363296A0029C6
:1009D00000D059E1002013E00C21A54C62680A40C8
:1009E000042A06D063680B40082B0BD16368DB0335
:1009F00008D523689B03BFD56B68002BBCD10120B1
:100A000005B0F0BD6B68012B13D1802322685B0217
:100A100013432360FFF742FC80260700B6022368D9
:100A20003342A9D1FFF73AFCC01B6428F7D9032051
:100A3000E6E7002B16D123688E4A802613402360F8
:100A400023688D4AB60213402360FFF727FC070096
:100A50002368334200D18FE7FFF720FCC01B6428D6
:100A6000F6D9E4E7052B05D180232268DB02134386
:100A70002360CAE723687F4A1340236023687E4AC5
:100A80001340C6E70C227A4C6368134206D06368B1
:100A90001340082B10D16368DB030DD423689B0738
:100AA00002D5EB68012BAAD1F82122682B698A4371
:100AB000DB001343236063E7EA680123002A0FD0B9
:100AC0002268022613432360FFF7E8FB0700236830
:100AD0003342E9D1FFF7E2FBC01B0228F7D9A6E7B2
:100AE000226802269A432260FFF7D8FB070023689A
:100AF000334200D144E7FFF7D1FBC01B0228F6D9EF
:100B000095E7EA6901235A4C002A10D0626A02264E
:100B100013436362FFF7C2FB0700636A334200D0EE
:100B200032E7FFF7BBFBC01B0228F6D97FE7626AFA
:100B300002269A436262FFF7B1FB0700636A334201
:100B400000D121E7FFF7AAFBC01B0228F6D96EE708
:100B500080220021464C5205E3690091134208D1DE
:100B6000E3691343E361E36913400393039B0123A8
:100B700000938027414E7F0033683B4206D0AB682C
:100B8000012B13D1226A1343236230E033683B43C5
:100B90003360FFF783FB019033683B42EFD1FFF7EF
:100BA0007DFB019BC01A6428F6D940E70122002B87
:100BB00014D1236A022793432362236A03329343A7
:100BC0002362FFF76BFB0600236A3B4225D0FFF749
:100BD00065FB2B4B801B9842F6D928E7052B0BD1E0
:100BE000216A013B0B432362236A1A432262FFF707
:100BF00055FB022706000DE0236A9343042223627B
:100C0000236A9343C0E7FFF749FB1D4B801B9842C3
:100C100000D90CE7236A3B42F5D0009B012B00D0A2
:100C2000B6E6E369174A1340E361B1E6FFF736FB26
:100C3000C01B022800D8BEE6F9E6053203D1626B7C
:100C40009A436263BBE6626B02261343012263632D
:100C5000636B93436363FFF721FB0700636B3342CE
:100C600000D1B3E6FFF71AFBC01B0228F6D9DEE677
:100C700000100240FFFFFEFFFFFFFBFF007000407F
:100C800088130000FFFFFFEF0C22264C0120636851
:100C90001340082B00D1B3E62368234A1340236096
:100CA00002292FD1FFF7FAFA80260700B60423683D
:100CB000334221D10F22E36A9343EA6A1343E3628A
:100CC000696AAB6A62680B43184980250A4013437E
:100CD0006360802322685B0413432360FFF7DEFA1E
:100CE0000600AD0423682B4200D073E6FFF7D6FA66
:100CF000801B0228F6D99AE6FFF7D0FAC01B02281B
:100D0000D5D994E6FFF7CAFA80250600AD0423681A
:100D10002B4200D15EE6FFF7C1FA801B0228F6D90C
:100D200085E6C04600100240FFFFFFFEFFFFC2FF46
:100D300070B5144C88B010222100684601F03CFCCC
:100D4000210004AD10221031280001F035FC0C22E6
:100D50000D4E73681A40082A11D10F206A46990C6B
:100D60000140545CF26A0240A95CDB0305D50748E8
:100D7000FFF7DEF9604308B070BD0548FAE70348A5
:100D8000F9E7C046F42500080010024000127A007E
:100D900000093D00F7B50122434C060023680F000F
:100DA00013408B421CD33268930723D4D30729D432
:100DB000012322681A40974267D333683B4C5B0794
:100DC0006AD4FFF7B5FF6368394A1B061B0FD35C73
:100DD000D840384B18600020FFF736FA002008E0B2
:100DE000236893430B432360236813409942DAD06E
:100DF0000120FEBDF0202D494B688343B0680343BA
:100E00004B60D3E7294D72682B68012A1AD19B03E6
:100E1000EED503216B688B4313436B60FFF73EFAFB
:100E200073680190012B15D10C226B681340042BC1
:100E3000BED0FFF733FA019BC01A1F4B9842F3D97B
:100E40000320D6E7022A02D19B01E2D4D0E79B0718
:100E5000DFD4CDE7022B12D00C226B681342A7D04F
:100E6000FFF71CFA019BC01A134B9842F4D9E7E72D
:100E7000FFF714FA019BC01A0F4B9842E0D80C22DE
:100E80006B681340082BF3D192E722689A432260E3
:100E900022681A42ACD190E76368084A1340F268AE
:100EA000134363608DE7C0460020024000100240FB
:100EB000182600080000002088130000FFF8FFFF3C
:100EC000014B18687047C04600000020044B054ADB
:100ED0005B685B055B0FD35C034A1068D8407047C2
:100EE000001002402826000800000020F0B503682A
:100EF00085B00500DB0328D580220021374C520540
:100F0000E3690091134208D1E3691343E361E369A4
:100F100013400393039B012300938027304E7F00EF
:100F200033683B4226D0C022236A920013402D4EE4
:100F300032D1236A1E406B681E43009B2662012B40
:100F400003D1E369284A1340E3612A68D30706D531
:100F5000032022490B6B8343A86803430B630020E3
:100F6000930617D510211D4A136B8B43E9680B4379
:100F700013630FE033683B433360FFF78FF9019051
:100F800033683B42CFD1FFF789F9019BC01A64282F
:100F9000F6D9032005B0F0BD69680A409342C8D075
:100FA0008023226A206A11005B0203432362236AC2
:100FB0000E483140034023622162D307B9D5FFF7C1
:100FC0006DF907000222236A1342B2D1FFF766F9D6
:100FD000074BC01B9842F5D9DBE7C0460010024022
:100FE00000700040FFFCFFFFFFFFFFEFFFFFFEFF71
:100FF000881300000122036A70B593430362036AF9
:1010000044688569723295430A6815430222934306
:101010008A681343144A904208D0144EB04205D057
:10102000134EB04202D0134EB04216D10826B3433D
:10103000CE6833430426B343904208D00B4A904213
:1010400005D00B4A904202D00A4A904205D10A4A82
:101050008E6922404C69344314434A684460856178
:101060004263036270BDC046002C01400040014055
:101070000044014000480140FFFCFFFF70B57325AC
:10108000036A174A13400362036A4268C469AC43A7
:101090000D682C43134D2B408D682D022B43124DB0
:1010A000A8420ED1114D1D40CB681B022B43104DA1
:1010B0002B40104D4E6915408A69324312012A4374
:1010C00008E00D4DA842F4D00C4DA842F1D00C4DD3
:1010D000A842EED042604A68C461C263036270BD38
:1010E000FFFEFFFFFFFDFFFF002C0140FFF7FFFFAA
:1010F000FFFBFFFFFFCFFFFF004001400044014026
:1011000000480140036A144A30B513400362026A82
:10111000124C4368C56925400C6824022543104CD5
:1011200022408C68240322430E4CA04208D00E4C6F
:10113000A04205D00D4CA04202D00D4CA04204D1DB
:101140000C4C23404C69A401234343604B68C561A8
:101150000364026230BDC046FFEFFFFFFF8CFFFF5C
:10116000FFDFFFFF002C0140004001400044014030
:1011700000480140FFBFFFFF1C4A10B503689042C2
:1011800002D01B4CA04208D17024A3434C682343D7
:1011900090420ED0164CA0420BD0164CA04208D064
:1011A000154CA04205D0154CA04202D0144CA042D0
:1011B00003D1144C2340CC6823438024A3434C69BF
:1011C000234303608B68C3620B688362904208D03C
:1011D000094B984205D0094B984202D0084B9842DF
:1011E00001D10B6903630123436110BD002C014051
:1011F0000004004000200040004001400044014045
:1012000000480140FFFCFFFF70B504000120002CE6
:1012100014D025003D352B78DBB2002B05D1220000
:101220003C321370200000F0C1FF022320682B70B5
:10123000211DFFF7A1FF012300202B7070BD70B5A9
:1012400004000120002C14D025003D352B78DBB2A2
:10125000002B05D122003C321370200000F082FFE9
:10126000022320682B70211DFFF786FF0123002039
:101270002B7070BD1022036A70B593430362026A3B
:10128000164D436884692C400D682D022C4320259F
:10129000AA438D682D012A43114DA8420FD1802504
:1012A000AA431500CA6812012A434025AA430D4DDE
:1012B0004E691D408B6933439B002B4308E00A4D68
:1012C000A842F4D0094DA842F1D0094DA842EED071
:1012D00043604B6884618363026270BDFF8CFFFFD3
:1012E000002C0140FFF3FFFF00400140004401409B
:1012F0000048014070B5040002263C342578030004
:101300003000012D17D01D0001383D3520702E70A2
:101310000C2A0CD81000FEF701FF070A0A0A0F0A70
:101320000A0A130A0A0A17001868FFF763FE012366
:1013300000202B70207070BD1868FFF79BFFF6E748
:101340001868FFF79BFEF2E71868FFF7DBFEEEE791
:10135000F8B5060002233C360D0031780400180071
:10136000012925D0270001213D3731703B700C2A1F
:101370001AD81000FEF7D2FE071818181D181818F2
:101380002F181818410029002068FFF733FE0822A3
:10139000236899690A4304219A619A698A439A6188
:1013A0009A6929690A439A61012300203B703070D1
:1013B000F8BD29002068FFF75DFF80222368120135
:1013C00099690A439A619A6915490A409A612A699A
:1013D00099691202E6E729002068FFF74FFE08220C
:1013E0002368D9690A430421DA61DA698A43DA6138
:1013F000DA6929690A43DA61D6E729002068FFF72C
:1014000081FE802223681201D9690A43DA61DA6910
:1014100003490A40DA612A69D9691202EAE7C0463B
:10142000FFFBFFFF10B501248C408A40036AA343F1
:101430000362036A1A43026210BD000010B5040083
:1014400001220068FFF7EEFF23680B4A934208D0A1
:101450000A4A934205D00A4A934202D0094A93426B
:1014600004D18022596C12020A435A64012219687D
:1014700000200A431A6010BD002C014000400140CA
:10148000004401400048014010B504000C290ED86A
:101490000800FEF743FE070C0C0C280C0C0C2C0C5F
:1014A0000C0C300002232268D0680343D360012271
:1014B0002068FFF7B7FF2368114A934208D0114A0A
:1014C000934205D0104A934202D0104A934204D16D
:1014D0008022596C12020A435A64012219680020C2
:1014E0000A431A6010BD22680423D068DDE7226831
:1014F0000823D068D9E722681023D068D5E7C04612
:10150000002C0140004001400044014000480140DF
:1015100030B504003C34227803000220012A17D0A1
:101520001D001B683D3528705A686E3082435A6032
:101530005A6808684968024380205A609A68824362
:101540009A609A6800200A439A6001232B702070E9
:1015500030BD000030B504003C3423780200022086
:10156000012B24D015003D352870114BC868126836
:101570000340886803430F480340486803430E480C
:101580000340086803430D480340086903430C48BF
:1015900003404869896903430A4803400A480B43EA
:1015A00003400B435364002001232B70207030BD97
:1015B000FFFCFFFFFFFBFFFFFFF7FFFFFFEFFFFF5A
:1015C000FFDFFFFFFFBFFFFFFF7FFFFF036806494D
:1015D0001A686A300A401A609A682331FF318A43D8
:1015E0009A60202303707047DFFEFFFF704770474B
:1015F0007047406A0023020010B55A321380083A3F
:101600001380FFF7F5FF10BD70B504000568C269CF
:10161000836800692968034360693F4E03433F487C
:10162000134301400B432B606B683D49206A0B401C
:10163000E1680B436B60A369A96803433948014023
:101640000B43AB6080231B02B54210D10320364907
:10165000096B01403548405C9A4213D0082858D89D
:10166000FEF75CFD375742574B57575750003049EC
:101670008D424CD19A422CD1FFF728FC6368400080
:101680005B080BE0082821D8FEF73EFDF620052078
:10169000182020201B0063685808264BC01861687A
:1016A000FEF746FD83B200200F22190091430A0085
:1016B0001B0721685B0F1343CB6070BDFFF738FB3E
:1016C000DCE76368580880235B02E7E7012000231A
:1016D000EAE7FFF7FBFB61684B081818FEF728FDE7
:1016E00080B2E8600020E8E76168134B4808C01842
:1016F000FEF71EFD80B2F060F4E7FFF719FB6168AA
:101700004B08F4E7802361681B024808EFE79A4220
:10171000DCD00120D1E7C04600380140F369FFFF6B
:10172000FFCFFFFFFFF4FFFF001002401426000868
:10173000004400400024F40000127A00436A30B5EF
:10174000DA0706D50168284C4A682240846A224399
:101750004A609A0706D50168244C4A682240C46A48
:1017600022434A605A0706D50168214C4A68224044
:10177000046B22434A601A0706D501681D4C4A686B
:101780002240446B22434A60DA0606D501681A4CAF
:101790008A682240846B22438A609A0606D50168D3
:1017A000164C8A682240C46B22438A605A0610D5C0
:1017B0000168134D4A68046C2A4022434A60802223
:1017C0005203944205D14A680E4C2240446C224395
:1017D0004A601B0606D502680B4953680B40816CB2
:1017E0000B43536030BDC046FFFFFDFFFFFFFEFF10
:1017F000FFFFFBFFFF7FFFFFFFEFFFFFFFDFFFFFAD
:10180000FFFFEFFFFFFF9FFFFFFFF7FF70B5041E15
:1018100001D1012070BD050069352B78DBB2002BAA
:1018200004D102006832137000F03EFE242301212F
:1018300022682B70136820008B431360FFF7E4FECF
:101840000128E6D0636A002B02D02000FFF776FF64
:1018500023680B495A6800200A4008215A609A6898
:101860008A439A60012219680A431A6022002023E1
:10187000E0666A3268342B7013702070CAE7C04685
:10188000FFF7FFFF030030B569331B780200022029
:10189000212B0FD114005234238811689BB2002BE6
:1018A00009D10A687E3082430A60402208680243F8
:1018B0000A60002030BD802095684001D36C8542CD
:1018C0000DD1106900280AD118880233C005C00D57
:1018D0000885D3642388013B9BB22380E9E7581C29
:1018E000D0641B780B85F5E74021026810B51368BA
:1018F0008B4313600300202269331A70FFF776FED2
:10190000002010BD020070B56A32117803682229E8
:101910002DD1010080245C310D88998C640129400F
:101920008568436DA5421ED10469002C1BD1198026
:1019300002334365010000245A310B88013B9BB2FE
:101940000B80A3420DD103680C4D19682940196022
:1019500099682335FF35A943996020231370FFF759
:1019600046FE200070BD5C1C44651970E2E7082249
:10197000996902240A439A61F3E7C046DFFEFFFF3C
:101980000F2270B504000068C36901681A4008D1CD
:1019900020252B4205D0294203D02000FFF7B2FFBB
:1019A00070BD8568002A60D00122154003D19026C1
:1019B0007600314259D0134205D0CE0503D50262DC
:1019C000E66E3243E2660222134206D0002D04D0B6
:1019D0000262E66E92183243E2660422134206D097
:1019E000002D04D00262E66E023A3243E2661A0724
:1019F00008D58A0601D4002D04D008220262E06EC8
:101A00000243E266E26E002ACAD02022134204D0CA
:101A1000114202D02000FFF775FFE36E20001B0784
:101A200004D423689D6840231D401AD0FFF7CEFDE3
:101A3000402123689A680A420FD09A68606E8A43F0
:101A40009A60002809D0134B4363FEF7D3FD0028AA
:101A5000A6D0606E436B9847A2E72000FFF7C8FD51
:101A60009EE7FFF7C5FDE5669AE78022134205D0A1
:101A7000114203D02000FFF705FF91E740221342F7
:101A800000D18DE7114200D18AE72000FFF72CFF3B
:101A900086E7C046F315000830B585B00C2200215A
:101AA00001A800F092FD0422344C354B6261FC32F7
:101AB000A2628022002523600123D20020006560FD
:101AC000A560E5602361A561E56123626562E2626C
:101AD00025636363FEF7E8FBA84201D000F074FAC7
:101AE00080235B010293802301A95B0520000195FF
:101AF0000393FEF77FFC002801D000F065FA012374
:101B000001A920000193FEF775FC002801D000F028
:101B10005BFA022301A920000193FEF76BFC002869
:101B200001D000F051FA032301A920000193FEF730
:101B300061FC002801D000F047FA042301A920002D
:101B40000193FEF757FC002801D000F03DFA052371
:101B500001A920000193FEF74DFC002801D000F000
:101B600033FA062301A920000193FEF743FC002865
:101B700001D000F029FA05B030BDC0468800002031
:101B80000024014030B5050089B01422002103A8CB
:101B900000F01BFD1D4B2A689A4235D180201C4B5A
:101BA000800099690143996180219A698902024004
:101BB0000192019A5A6990200A435A615B69C005F3
:101BC0000B400293029B7F2303A903937C3B049366
:101BD000FEF77CFD0F4C104B802223600023E26057
:101BE00092186360A3602261A36180228023D200E7
:101BF0009B0120006261E361FEF7C6FC002801D072
:101C000000F0E2F9EC63656209B030BD00240140E8
:101C100000100240400000200800024030B50028BB
:101C200002D0012844D030BD3F4A1378012B1FD188
:101C30003E493F4C0B68246801330B60A342F2D34A
:101C40003C4C2378002B0AD1022020703A480370C4
:101C50003A48436300230B6002331370E3E7012B20
:101C6000F8D1374B207058630220334B1870F1E7DE
:101C7000022BD8D12D490B6801330B60042BD2D92C
:101C80002C4B1878022805D1C8242D48A4004463A1
:101C900001201870284B1878022805D1C82427483D
:101CA000640044630120187000230B600133D4E703
:101CB000244A1378012B1BD123491D480B68006867
:101CC00001330B608342AED320480378002B06D14A
:101CD000022404701E48037018488363BAE7012B7E
:101CE000B8D100230370164883630220184BBDE768
:101CF000022B98D114490B6801330B60042B00D8D8
:101D000091E7124B1C78022C04D1C8250C4CAD0075
:101D1000A56318700E4B18780228C5D1C82407484F
:101D200064008463BEE7C046310000203400002018
:101D30002C0000202400002030000020002C014056
:101D4000000400402700002038000020320000205E
:101D5000D400002007B50120084A516901435161B0
:101D6000536900220340019311000830019BFEF7E4
:101D7000B7FB0920FEF7E4FB07BDC0460010024098
:101D800000B589B01422002103A800F01EFC8020B9
:101D9000114B80025969014359615A690240802000
:101DA0000092009A5969C0020143596180215A6921
:101DB000090302400192019A5A6908480A435A618C
:101DC0005B690B400293029BE02303A9DB010393B1
:101DD000FEF77CFC09B000BD001002400004004882
:101DE00010B5134B134C01222360134B200063608A
:101DF0000023E260A36023616361A361E361236266
:101E0000FEF714FD002801D000F0DEF800212000CC
:101E1000FEF762FD002801D000F0D6F80021200076
:101E2000FEF780FD002801D000F0CEF810BDC046BE
:101E300000540040D80000200E09002010B5040016
:101E400088B01422002103A800F0BFFB134B2268C6
:101E50009A4220D18021124CC902626911480A437A
:101E60006261636903220B400193019BC0239B00C5
:101E70000393122303A90493113B0593069207933E
:101E8000FEF724FC8021E26989030A43E261E369E9
:101E90000B400293029B08B010BDC04600540040A6
:101EA000001002400004004830B5102495B03022E4
:101EB000002108A800F089FB22000021684600F0FC
:101EC00084FB2200002104A800F07FFB122308936A
:101ED000802301250C940E949B030E3C08A80B95BF
:101EE0000D9510941293FEF741FD002800D0FEE7F7
:101EF0000723029003902900684600930194FEF79F
:101F000049FF002800D0FEE721230690079004A88F
:101F10000493FEF7EBFF002800D0FEE715B030BDBC
:101F20003C221B4B10B51A80D3221A4B92001A6028
:101F30000023194A1360194A1360194A1360194A99
:101F40001370194A1370194A1370194A1370194AF9
:101F50001370194A1370194A01331370184A137019
:101F6000184A1370FEF782F9FFF79EFFFFF708FF8C
:101F7000FFF7F0FEFFF790FDFFF732FF00F082F968
:101F800000F0FAF900F074FA00F096F8FEE7C046A7
:101F9000280000202C000020340000203800002001
:101FA00084000020240000202500002032000020B2
:101FB000300000203C000020D40000203100002030
:101FC0002700002026000020FEE7000001200A4B29
:101FD00082B099690143996180219A69490502405B
:101FE0000092009ADA690A43DA61DB690B400193D7
:101FF000019B02B07047C046001002407047FEE7E8
:102000007047704710B5FEF741F910BD10B5024892
:10201000FEF713FB10BDC0464000002010B502487B
:10202000FFF7AEFC10BDC046E4010020022210B54F
:10203000084C2368196911420BD0D968114208D0A5
:10204000053A1A61012300202377FFF7E7FD0023FB
:10205000237710BD640100200121114B11481A683B
:102060000A431A605A6802405A601A680E480240D1
:102070001A601A680D4802401A605A680C480240FB
:102080000F205A60DA6A8243DA621A6B094802400A
:102090001A635A6B8A435A6300229A607047C0469B
:1020A000001002400CB8FF08FFFFF6FEFFFFFBFF29
:1020B000FFFFC0FFECFEFFFF30B591B0082200210A
:1020C000684600F082FA1C22002102A800F07DFA86
:1020D0001C22002109A800F078FA204D204B002492
:1020E0002B60FA2328009B006C60AC60EB602C61D5
:1020F0006C61AC61FFF788F8A04201D0FFF764FF84
:102100006946280000940194FFF702FA002801D0E4
:10211000FFF75AFF002402A922002800029403942A
:1021200004940594069407940894FFF7E3F8A042FA
:1021300001D0FFF749FF802309A99B0128000994DA
:102140000A940B940C940D940E930F94FFF702FADB
:10215000002801D0FFF738FF11B030BD2401002066
:102160000040014003680E4A82B093420BD18020A8
:102170000C4A000191690143916193690340009306
:10218000009B02B07047084A9342FAD10220054AE8
:10219000D1690143D161D36903400193019BF0E709
:1021A000002C01400010024000040040084B02686F
:1021B00082B09A4209D18020064A400291690143C7
:1021C0009161936903400193019B02B07047C0463F
:1021D000004001400010024010B5040088B01422F5
:1021E000002103A800F0F1F92368214A934216D197
:1021F0008020204A8002516901435161536903A93B
:1022000003400093009BE023DB0003939020022314
:10221000C00504930793FEF759FA08B010BD164A9B
:102220009342FAD18020134BC00259690224014322
:10223000596180215A69090302400192019A5A6941
:102240000E480A435A615B6904940B400293029B57
:10225000012303A903930793FEF738FAC0230393DE
:102260000023049405930693079303A90448D2E737
:10227000002C01400010024000040040000400480F
:102280000008004830B58BB00822002101A800F0FA
:102290009CF91C22002103A800F097F9334C344B21
:1022A00000252360C8239B00E36080232000656035
:1022B000A56025616561A361FEF7C1FFA84201D059
:1022C000FFF782FE01A9200001950295FFF720F992
:1022D000002801D0FFF778FE0022602303A9200028
:1022E0000393049205920692079208920992FFF7CF
:1022F0002FF8002801D0FFF767FE042203A9200071
:10230000FFF726F8002801D0FFF75EFE082203A998
:102310002000FFF71DF8002801D0FFF755FE200030
:10232000FFF75AFF8020134A000191690143916130
:1023300093690021034000932000009BFFF77EF883
:10234000002801D0FFF740FE04212000FFF776F8B7
:10235000002801D0FFF738FE08212000FFF76EF8B3
:10236000002801D0FFF730FE0BB030BDA4010020E3
:10237000002C01400010024030B58BB00822002133
:1023800001A800F022F91C22002103A800F01DF989
:10239000344C354B00252360C82320009B0065602A
:1023A000A560E3602561A561FEF749FFA84201D061
:1023B000FFF70AFE01A9200001950295FFF7A8F892
:1023C000002801D0FFF700FE0022602303A92000AF
:1023D0000393049205920792FEF7BAFF002801D0FA
:1023E000FFF7F2FD042203A92000FEF7B1FF002849
:1023F00001D0FFF7E9FD082203A92000FEF7A8FF9E
:10240000002801D0FFF7E0FD2000FFF7E5FE0220E5
:10241000164AD1690143D161D36900210340009379
:102420002000009BFFF730F8002801D0FFF7CCFD1B
:1024300004212000FFF702F8002801D0FFF7C4FDB7
:1024400008212000FEF7FAFF002801D0FFF7BCFDAD
:10245000002210201100FEF743F81020FEF770F85C
:102460000BB030BD640100200004004000100240A9
:102470000B480C4B10B5036096231B0243600C22E3
:10248000002342618360C36003618361C3610362AF
:102490004362FFF7BBF9002801D0FFF795FD10BD9F
:1024A000E40100200038014010B5040088B0142277
:1024B000002103A800F089F8154B22689A4224D124
:1024C0008020144BC00199690143996180219A6968
:1024D000C90202400192019A5A690F480A435A619F
:1024E0005B690B400293029BC0230393BE3B0493A2
:1024F00003A901330693FEF7E9F800221B2011001F
:10250000FDF7EEFF1B20FEF71BF808B010BDC0461C
:102510000038014000100240000400480D48854684
:102520000D480E490E4A002302E0D458C45004332B
:10253000C4188C42F9D30B4A0B4C002301E0136002
:102540000432A242FBD3FFF787FD00F011F8FFF73A
:10255000E7FCFEE70020002000000020040000202F
:10256000382600080400002054020020FEE7000086
:1025700070B500260C4D0D4C641BA410A64209D169
:10258000002600F02BF80A4D0A4C641BA410A6424A
:1025900005D170BDB300EB5898470136EEE7B300A4
:1025A000EB5898470136F2E730260008302600083D
:1025B0003026000834260008002310B59A4200D1C6
:1025C00010BDCC5CC4540133F8E703008218934279
:1025D00000D1704719700133F9E70000F8B5C04623
:1025E000F8BC08BC9E467047F8B5C046F8BC08BCAD
:0425F0009E4670474C
:1025F40002030405060708090A0B0C0D0E0F101040
:102604000102030405060708090A0B0C0D0E0F103E
:10261400000408020000000000000000010203049E
:0C26240006070809000000000102030482
:04263000E9000008B5
:04263400C1000008D9
:0426380000127A0012
:040000050800251DAD
:00000001FF
